{
  "contracts/Chroma.sol": {
    "Chroma": {
      "abi": [
        {
          "inputs": [
            {
              "internalType": "address",
              "name": "_projectWallet",
              "type": "address"
            }
          ],
          "stateMutability": "nonpayable",
          "type": "constructor"
        },
        {
          "inputs": [],
          "name": "InsufficientPayment",
          "type": "error"
        },
        {
          "inputs": [],
          "name": "InvalidColor",
          "type": "error"
        },
        {
          "inputs": [],
          "name": "InvalidCoordinates",
          "type": "error"
        },
        {
          "inputs": [],
          "name": "TransferFailed",
          "type": "error"
        },
        {
          "anonymous": false,
          "inputs": [
            {
              "indexed": true,
              "internalType": "uint256",
              "name": "coordinate",
              "type": "uint256"
            },
            {
              "indexed": false,
              "internalType": "uint8",
              "name": "oldHeatLevel",
              "type": "uint8"
            },
            {
              "indexed": false,
              "internalType": "uint8",
              "name": "newHeatLevel",
              "type": "uint8"
            }
          ],
          "name": "HeatDecayed",
          "type": "event"
        },
        {
          "anonymous": false,
          "inputs": [
            {
              "indexed": true,
              "internalType": "uint256",
              "name": "coordinate",
              "type": "uint256"
            },
            {
              "indexed": true,
              "internalType": "address",
              "name": "placer",
              "type": "address"
            },
            {
              "indexed": false,
              "internalType": "uint24",
              "name": "color",
              "type": "uint24"
            },
            {
              "indexed": false,
              "internalType": "uint8",
              "name": "heatLevel",
              "type": "uint8"
            },
            {
              "indexed": false,
              "internalType": "uint256",
              "name": "pricePaid",
              "type": "uint256"
            },
            {
              "indexed": false,
              "internalType": "uint64",
              "name": "timestamp",
              "type": "uint64"
            }
          ],
          "name": "PixelChanged",
          "type": "event"
        },
        {
          "inputs": [],
          "name": "BASE_PIXEL_PRICE",
          "outputs": [
            {
              "internalType": "uint256",
              "name": "",
              "type": "uint256"
            }
          ],
          "stateMutability": "view",
          "type": "function"
        },
        {
          "inputs": [],
          "name": "CANVAS_HEIGHT",
          "outputs": [
            {
              "internalType": "uint256",
              "name": "",
              "type": "uint256"
            }
          ],
          "stateMutability": "view",
          "type": "function"
        },
        {
          "inputs": [],
          "name": "CANVAS_WIDTH",
          "outputs": [
            {
              "internalType": "uint256",
              "name": "",
              "type": "uint256"
            }
          ],
          "stateMutability": "view",
          "type": "function"
        },
        {
          "inputs": [],
          "name": "HEAT_DECAY_TIME",
          "outputs": [
            {
              "internalType": "uint256",
              "name": "",
              "type": "uint256"
            }
          ],
          "stateMutability": "view",
          "type": "function"
        },
        {
          "inputs": [],
          "name": "HEAT_MULTIPLIER",
          "outputs": [
            {
              "internalType": "uint256",
              "name": "",
              "type": "uint256"
            }
          ],
          "stateMutability": "view",
          "type": "function"
        },
        {
          "inputs": [],
          "name": "MAX_HEAT_LEVEL",
          "outputs": [
            {
              "internalType": "uint256",
              "name": "",
              "type": "uint256"
            }
          ],
          "stateMutability": "view",
          "type": "function"
        },
        {
          "inputs": [],
          "name": "TOTAL_PIXELS",
          "outputs": [
            {
              "internalType": "uint256",
              "name": "",
              "type": "uint256"
            }
          ],
          "stateMutability": "view",
          "type": "function"
        },
        {
          "inputs": [
            {
              "internalType": "uint16",
              "name": "x",
              "type": "uint16"
            },
            {
              "internalType": "uint16",
              "name": "y",
              "type": "uint16"
            }
          ],
          "name": "decayPixelHeat",
          "outputs": [],
          "stateMutability": "nonpayable",
          "type": "function"
        },
        {
          "inputs": [
            {
              "internalType": "uint16",
              "name": "startX",
              "type": "uint16"
            },
            {
              "internalType": "uint16",
              "name": "startY",
              "type": "uint16"
            },
            {
              "internalType": "uint16",
              "name": "width",
              "type": "uint16"
            },
            {
              "internalType": "uint16",
              "name": "height",
              "type": "uint16"
            }
          ],
          "name": "getCanvasRegion",
          "outputs": [
            {
              "components": [
                {
                  "internalType": "address",
                  "name": "owner",
                  "type": "address"
                },
                {
                  "internalType": "uint64",
                  "name": "timestamp",
                  "type": "uint64"
                },
                {
                  "internalType": "uint24",
                  "name": "color",
                  "type": "uint24"
                },
                {
                  "internalType": "uint8",
                  "name": "heatLevel",
                  "type": "uint8"
                },
                {
                  "internalType": "uint64",
                  "name": "lastPlacedTime",
                  "type": "uint64"
                }
              ],
              "internalType": "struct Chroma.Pixel[]",
              "name": "",
              "type": "tuple[]"
            }
          ],
          "stateMutability": "view",
          "type": "function"
        },
        {
          "inputs": [],
          "name": "getCanvasStats",
          "outputs": [
            {
              "internalType": "uint256",
              "name": "totalPlaced",
              "type": "uint256"
            },
            {
              "internalType": "uint256",
              "name": "canvasSize",
              "type": "uint256"
            }
          ],
          "stateMutability": "view",
          "type": "function"
        },
        {
          "inputs": [
            {
              "internalType": "uint16",
              "name": "x",
              "type": "uint16"
            },
            {
              "internalType": "uint16",
              "name": "y",
              "type": "uint16"
            }
          ],
          "name": "getPixel",
          "outputs": [
            {
              "components": [
                {
                  "internalType": "address",
                  "name": "owner",
                  "type": "address"
                },
                {
                  "internalType": "uint64",
                  "name": "timestamp",
                  "type": "uint64"
                },
                {
                  "internalType": "uint24",
                  "name": "color",
                  "type": "uint24"
                },
                {
                  "internalType": "uint8",
                  "name": "heatLevel",
                  "type": "uint8"
                },
                {
                  "internalType": "uint64",
                  "name": "lastPlacedTime",
                  "type": "uint64"
                }
              ],
              "internalType": "struct Chroma.Pixel",
              "name": "",
              "type": "tuple"
            }
          ],
          "stateMutability": "view",
          "type": "function"
        },
        {
          "inputs": [
            {
              "internalType": "uint16",
              "name": "x",
              "type": "uint16"
            },
            {
              "internalType": "uint16",
              "name": "y",
              "type": "uint16"
            }
          ],
          "name": "getPixelPrice",
          "outputs": [
            {
              "internalType": "uint256",
              "name": "",
              "type": "uint256"
            }
          ],
          "stateMutability": "view",
          "type": "function"
        },
        {
          "inputs": [
            {
              "internalType": "address",
              "name": "user",
              "type": "address"
            }
          ],
          "name": "getUserStats",
          "outputs": [
            {
              "internalType": "uint256",
              "name": "pixelCount",
              "type": "uint256"
            }
          ],
          "stateMutability": "view",
          "type": "function"
        },
        {
          "inputs": [
            {
              "internalType": "uint256",
              "name": "",
              "type": "uint256"
            }
          ],
          "name": "pixels",
          "outputs": [
            {
              "internalType": "address",
              "name": "owner",
              "type": "address"
            },
            {
              "internalType": "uint64",
              "name": "timestamp",
              "type": "uint64"
            },
            {
              "internalType": "uint24",
              "name": "color",
              "type": "uint24"
            },
            {
              "internalType": "uint8",
              "name": "heatLevel",
              "type": "uint8"
            },
            {
              "internalType": "uint64",
              "name": "lastPlacedTime",
              "type": "uint64"
            }
          ],
          "stateMutability": "view",
          "type": "function"
        },
        {
          "inputs": [
            {
              "internalType": "uint16",
              "name": "x",
              "type": "uint16"
            },
            {
              "internalType": "uint16",
              "name": "y",
              "type": "uint16"
            },
            {
              "internalType": "uint24",
              "name": "color",
              "type": "uint24"
            }
          ],
          "name": "placePixel",
          "outputs": [],
          "stateMutability": "payable",
          "type": "function"
        },
        {
          "inputs": [],
          "name": "projectWallet",
          "outputs": [
            {
              "internalType": "address",
              "name": "",
              "type": "address"
            }
          ],
          "stateMutability": "view",
          "type": "function"
        },
        {
          "inputs": [],
          "name": "totalPixelsPlaced",
          "outputs": [
            {
              "internalType": "uint256",
              "name": "",
              "type": "uint256"
            }
          ],
          "stateMutability": "view",
          "type": "function"
        },
        {
          "inputs": [
            {
              "internalType": "address",
              "name": "",
              "type": "address"
            }
          ],
          "name": "userPixelCount",
          "outputs": [
            {
              "internalType": "uint256",
              "name": "",
              "type": "uint256"
            }
          ],
          "stateMutability": "view",
          "type": "function"
        }
      ],
      "evm": {
        "bytecode": {
          "linkReferences": {},
          "object": "60a060405234801561001057600080fd5b506040516110e23803806110e283398101604081905261002f9161009a565b6001600160a01b0381166100895760405162461bcd60e51b815260206004820152601660248201527f496e76616c69642070726f6a6563742077616c6c657400000000000000000000604482015260640160405180910390fd5b6001600160a01b03166080526100ca565b6000602082840312156100ac57600080fd5b81516001600160a01b03811681146100c357600080fd5b9392505050565b608051610ff66100ec6000396000818161038b0152610a3b0152610ff66000f3fe6080604052600436106101095760003560e01c80638da7f23211610095578063b3459e8a11610064578063b3459e8a1461034c578063beb08ab914610379578063d333a81c146103c5578063ed4127df14610224578063f186bb79146103d857600080fd5b80638da7f2321461025c578063a29497c21461030c578063a52ac17114610321578063a5db5bf41461033757600080fd5b806353ba9c2f116100dc57806353ba9c2f146101b35780635a4c91ad146101e05780635d6304df146101fa57806371bf439e1461022457806387da81e71461023a57600080fd5b806316cc12d71461010e5780633fbf2ccd146101445780634e43603a1461016757806350d4e16c1461019d575b600080fd5b34801561011a57600080fd5b5061012e610129366004610cf4565b6103f8565b60405161013b9190610d9a565b60405180910390f35b34801561015057600080fd5b50610159600a81565b60405190815260200161013b565b34801561017357600080fd5b50610159610182366004610de8565b6001600160a01b031660009081526002602052604090205490565b3480156101a957600080fd5b50610159610e1081565b3480156101bf57600080fd5b506101d36101ce366004610e11565b6105e5565b60405161013b9190610e44565b3480156101ec57600080fd5b50610159655af3107a400081565b34801561020657600080fd5b5061020f6106df565b6040805192835260208301919091520161013b565b34801561023057600080fd5b50610159610bb881565b34801561024657600080fd5b5061025a610255366004610e11565b6106fb565b005b34801561026857600080fd5b506102c7610277366004610e52565b600060208190529081526040902080546001909101546001600160a01b038216916001600160401b03600160a01b820481169262ffffff600160e01b8404169260ff600160f81b90910416911685565b604080516001600160a01b0390961686526001600160401b03948516602087015262ffffff9093169285019290925260ff16606084015216608082015260a00161013b565b34801561031857600080fd5b50610159610832565b34801561032d57600080fd5b5061015960015481565b34801561034357600080fd5b50610159609681565b34801561035857600080fd5b50610159610367366004610de8565b60026020526000908152604090205481565b34801561038557600080fd5b506103ad7f000000000000000000000000000000000000000000000000000000000000000081565b6040516001600160a01b03909116815260200161013b565b61025a6103d3366004610e6b565b610841565b3480156103e457600080fd5b506101596103f3366004610e11565b610b2f565b6060610bb86104078487610ed0565b61ffff1611806104255750610bb861041f8386610ed0565b61ffff16115b156104435760405163179a054560e01b815260040160405180910390fd5b600061045661ffff808516908616610eea565b90506000816001600160401b0381111561047257610472610f01565b6040519080825280602002602001820160405280156104cb57816020015b6040805160a0810182526000808252602080830182905292820181905260608201819052608082015282526000199092019101816104905790505b5090506000865b6104dc8689610ed0565b61ffff168161ffff1610156105d857885b6104f7888b610ed0565b61ffff168161ffff1610156105cf5760006105128284610c37565b60008181526020818152604091829020825160a08101845281546001600160a01b0381168252600160a01b81046001600160401b0390811694830194909452600160e01b810462ffffff1694820194909452600160f81b90930460ff1660608401526001015416608082015290915061058a81610c61565b60ff166060820152855181908790879081106105a8576105a8610f17565b602002602001018190525084806105be90610f2d565b955050600190920191506104ed9050565b506001016104d2565b5090979650505050505050565b6040805160a081018252600080825260208201819052918101829052606081018290526080810191909152610bb88361ffff1610158061062b5750610bb88261ffff1610155b156106495760405163179a054560e01b815260040160405180910390fd5b60006106558484610c37565b60008181526020818152604091829020825160a08101845281546001600160a01b0381168252600160a01b81046001600160401b0390811694830194909452600160e01b810462ffffff1694820194909452600160f81b90930460ff166060840152600101541660808201529091506106cd81610c61565b60ff1660608201529150505b92915050565b600080600154610bb8806106f39190610eea565b915091509091565b610bb88261ffff161015806107165750610bb88161ffff1610155b156107345760405163179a054560e01b815260040160405180910390fd5b60006107408383610c37565b6000818152602081815260408083208054825160a0810184526001600160a01b03821681526001600160401b03600160a01b830481169582019590955262ffffff600160e01b8304169381019390935260ff600160f81b9091041660608301819052600182015490931660808301529394509091906107be90610c61565b90508160ff168160ff161461082a5782546001600160f81b0316600160f81b60ff838116918202929092178555604080519285168352602083019190915285917f5ceb704f098ced1532ccbbb7a668d97069d9a831ae06d82f21b2fb54e486524c910160405180910390a25b505050505050565b61083e610bb880610eea565b81565b610bb88361ffff1610158061085c5750610bb88261ffff1610155b1561087a5760405163179a054560e01b815260040160405180910390fd5b62ffffff8162ffffff1611156108a357604051631cf7e9c560e01b815260040160405180910390fd5b60006108af8484610c37565b905060006108bd8585610b2f565b9050803410156108e05760405163cd1c886760e01b815260040160405180910390fd5b600082815260208181526040808320815160a08101835281546001600160a01b0381168252600160a01b81046001600160401b0390811695830195909552600160e01b810462ffffff1693820193909352600160f81b90920460ff1660608301526001810154909216608082015290919061095a90610c61565b90506000600a8260ff161061097057600a61097b565b61097b826001610f46565b835460ff808316600160f81b026001600160f81b0362ffffff8b16600160e01b02166001600160e01b036001600160401b034216600160a01b810267ffffffffffffffff60a01b1933166001600160e01b03199097169690961795909517161717865560018601805467ffffffffffffffff19169092179091559091508216600003610a175760018054906000610a1183610f2d565b91905055505b336000908152600260205260408120805491610a3283610f2d565b919050555060007f00000000000000000000000000000000000000000000000000000000000000006001600160a01b03163460405160006040518083038185875af1925050503d8060008114610aa4576040519150601f19603f3d011682016040523d82523d6000602084013e610aa9565b606091505b5050905080610acb576040516312171d8360e31b815260040160405180910390fd5b6040805162ffffff8916815260ff841660208201523481830152426001600160401b031660608201529051339188917f0e5cb8a12f9e2f6737e48e82ef857a564d626062377adad35b00b3b0dfa84fa79181900360800190a3505050505050505050565b6000610bb88361ffff16101580610b4c5750610bb88261ffff1610155b15610b6a5760405163179a054560e01b815260040160405180910390fd5b6000610b768484610c37565b600081815260208181526040808320815160a08101835281546001600160a01b0381168252600160a01b81046001600160401b0390811695830195909552600160e01b810462ffffff1693820193909352600160f81b90920460ff1660608301526001810154909216608082015292935091610bf190610c61565b9050655af3107a400060005b8260ff168160ff161015610c2c576064610c18609684610eea565b610c229190610f5f565b9150600101610bfd565b509695505050505050565b60008261ffff16610bb88361ffff16610c509190610eea565b610c5a9190610f81565b9392505050565b600081608001516001600160401b0316600003610c8057506000919050565b600082608001516001600160401b031642610c9b9190610f94565b90506000610cab610e1083610f5f565b9050836060015160ff168110610cc5575060009392505050565b808460600151610cd59190610fa7565b949350505050565b803561ffff81168114610cef57600080fd5b919050565b60008060008060808587031215610d0a57600080fd5b610d1385610cdd565b9350610d2160208601610cdd565b9250610d2f60408601610cdd565b9150610d3d60608601610cdd565b905092959194509250565b60018060a01b0381511682526001600160401b03602082015116602083015262ffffff604082015116604083015260ff60608201511660608301526001600160401b0360808201511660808301525050565b602080825282518282018190526000918401906040840190835b81811015610ddd57610dc7838551610d48565b6020939093019260a09290920191600101610db4565b509095945050505050565b600060208284031215610dfa57600080fd5b81356001600160a01b0381168114610c5a57600080fd5b60008060408385031215610e2457600080fd5b610e2d83610cdd565b9150610e3b60208401610cdd565b90509250929050565b60a081016106d98284610d48565b600060208284031215610e6457600080fd5b5035919050565b600080600060608486031215610e8057600080fd5b610e8984610cdd565b9250610e9760208501610cdd565b9150604084013562ffffff81168114610eaf57600080fd5b809150509250925092565b634e487b7160e01b600052601160045260246000fd5b61ffff81811683821601908111156106d9576106d9610eba565b80820281158282048414176106d9576106d9610eba565b634e487b7160e01b600052604160045260246000fd5b634e487b7160e01b600052603260045260246000fd5b600060018201610f3f57610f3f610eba565b5060010190565b60ff81811683821601908111156106d9576106d9610eba565b600082610f7c57634e487b7160e01b600052601260045260246000fd5b500490565b808201808211156106d9576106d9610eba565b818103818111156106d9576106d9610eba565b60ff82811682821603908111156106d9576106d9610eba56fea2646970667358221220a117547fcf4ed7a37e023444b19af149850e18bc98038a4bf48887a3d8e61e2264736f6c634300081c0033",
          "opcodes": "PUSH1 0xA0 PUSH1 0x40 MSTORE CALLVALUE DUP1 ISZERO PUSH2 0x10 JUMPI PUSH1 0x0 DUP1 REVERT JUMPDEST POP PUSH1 0x40 MLOAD PUSH2 0x10E2 CODESIZE SUB DUP1 PUSH2 0x10E2 DUP4 CODECOPY DUP2 ADD PUSH1 0x40 DUP2 SWAP1 MSTORE PUSH2 0x2F SWAP2 PUSH2 0x9A JUMP JUMPDEST PUSH1 0x1 PUSH1 0x1 PUSH1 0xA0 SHL SUB DUP2 AND PUSH2 0x89 JUMPI PUSH1 0x40 MLOAD PUSH3 0x461BCD PUSH1 0xE5 SHL DUP2 MSTORE PUSH1 0x20 PUSH1 0x4 DUP3 ADD MSTORE PUSH1 0x16 PUSH1 0x24 DUP3 ADD MSTORE PUSH32 0x496E76616C69642070726F6A6563742077616C6C657400000000000000000000 PUSH1 0x44 DUP3 ADD MSTORE PUSH1 0x64 ADD PUSH1 0x40 MLOAD DUP1 SWAP2 SUB SWAP1 REVERT JUMPDEST PUSH1 0x1 PUSH1 0x1 PUSH1 0xA0 SHL SUB AND PUSH1 0x80 MSTORE PUSH2 0xCA JUMP JUMPDEST PUSH1 0x0 PUSH1 0x20 DUP3 DUP5 SUB SLT ISZERO PUSH2 0xAC JUMPI PUSH1 0x0 DUP1 REVERT JUMPDEST DUP2 MLOAD PUSH1 0x1 PUSH1 0x1 PUSH1 0xA0 SHL SUB DUP2 AND DUP2 EQ PUSH2 0xC3 JUMPI PUSH1 0x0 DUP1 REVERT JUMPDEST SWAP4 SWAP3 POP POP POP JUMP JUMPDEST PUSH1 0x80 MLOAD PUSH2 0xFF6 PUSH2 0xEC PUSH1 0x0 CODECOPY PUSH1 0x0 DUP2 DUP2 PUSH2 0x38B ADD MSTORE PUSH2 0xA3B ADD MSTORE PUSH2 0xFF6 PUSH1 0x0 RETURN INVALID PUSH1 0x80 PUSH1 0x40 MSTORE PUSH1 0x4 CALLDATASIZE LT PUSH2 0x109 JUMPI PUSH1 0x0 CALLDATALOAD PUSH1 0xE0 SHR DUP1 PUSH4 0x8DA7F232 GT PUSH2 0x95 JUMPI DUP1 PUSH4 0xB3459E8A GT PUSH2 0x64 JUMPI DUP1 PUSH4 0xB3459E8A EQ PUSH2 0x34C JUMPI DUP1 PUSH4 0xBEB08AB9 EQ PUSH2 0x379 JUMPI DUP1 PUSH4 0xD333A81C EQ PUSH2 0x3C5 JUMPI DUP1 PUSH4 0xED4127DF EQ PUSH2 0x224 JUMPI DUP1 PUSH4 0xF186BB79 EQ PUSH2 0x3D8 JUMPI PUSH1 0x0 DUP1 REVERT JUMPDEST DUP1 PUSH4 0x8DA7F232 EQ PUSH2 0x25C JUMPI DUP1 PUSH4 0xA29497C2 EQ PUSH2 0x30C JUMPI DUP1 PUSH4 0xA52AC171 EQ PUSH2 0x321 JUMPI DUP1 PUSH4 0xA5DB5BF4 EQ PUSH2 0x337 JUMPI PUSH1 0x0 DUP1 REVERT JUMPDEST DUP1 PUSH4 0x53BA9C2F GT PUSH2 0xDC JUMPI DUP1 PUSH4 0x53BA9C2F EQ PUSH2 0x1B3 JUMPI DUP1 PUSH4 0x5A4C91AD EQ PUSH2 0x1E0 JUMPI DUP1 PUSH4 0x5D6304DF EQ PUSH2 0x1FA JUMPI DUP1 PUSH4 0x71BF439E EQ PUSH2 0x224 JUMPI DUP1 PUSH4 0x87DA81E7 EQ PUSH2 0x23A JUMPI PUSH1 0x0 DUP1 REVERT JUMPDEST DUP1 PUSH4 0x16CC12D7 EQ PUSH2 0x10E JUMPI DUP1 PUSH4 0x3FBF2CCD EQ PUSH2 0x144 JUMPI DUP1 PUSH4 0x4E43603A EQ PUSH2 0x167 JUMPI DUP1 PUSH4 0x50D4E16C EQ PUSH2 0x19D JUMPI JUMPDEST PUSH1 0x0 DUP1 REVERT JUMPDEST CALLVALUE DUP1 ISZERO PUSH2 0x11A JUMPI PUSH1 0x0 DUP1 REVERT JUMPDEST POP PUSH2 0x12E PUSH2 0x129 CALLDATASIZE PUSH1 0x4 PUSH2 0xCF4 JUMP JUMPDEST PUSH2 0x3F8 JUMP JUMPDEST PUSH1 0x40 MLOAD PUSH2 0x13B SWAP2 SWAP1 PUSH2 0xD9A JUMP JUMPDEST PUSH1 0x40 MLOAD DUP1 SWAP2 SUB SWAP1 RETURN JUMPDEST CALLVALUE DUP1 ISZERO PUSH2 0x150 JUMPI PUSH1 0x0 DUP1 REVERT JUMPDEST POP PUSH2 0x159 PUSH1 0xA DUP2 JUMP JUMPDEST PUSH1 0x40 MLOAD SWAP1 DUP2 MSTORE PUSH1 0x20 ADD PUSH2 0x13B JUMP JUMPDEST CALLVALUE DUP1 ISZERO PUSH2 0x173 JUMPI PUSH1 0x0 DUP1 REVERT JUMPDEST POP PUSH2 0x159 PUSH2 0x182 CALLDATASIZE PUSH1 0x4 PUSH2 0xDE8 JUMP JUMPDEST PUSH1 0x1 PUSH1 0x1 PUSH1 0xA0 SHL SUB AND PUSH1 0x0 SWAP1 DUP2 MSTORE PUSH1 0x2 PUSH1 0x20 MSTORE PUSH1 0x40 SWAP1 KECCAK256 SLOAD SWAP1 JUMP JUMPDEST CALLVALUE DUP1 ISZERO PUSH2 0x1A9 JUMPI PUSH1 0x0 DUP1 REVERT JUMPDEST POP PUSH2 0x159 PUSH2 0xE10 DUP2 JUMP JUMPDEST CALLVALUE DUP1 ISZERO PUSH2 0x1BF JUMPI PUSH1 0x0 DUP1 REVERT JUMPDEST POP PUSH2 0x1D3 PUSH2 0x1CE CALLDATASIZE PUSH1 0x4 PUSH2 0xE11 JUMP JUMPDEST PUSH2 0x5E5 JUMP JUMPDEST PUSH1 0x40 MLOAD PUSH2 0x13B SWAP2 SWAP1 PUSH2 0xE44 JUMP JUMPDEST CALLVALUE DUP1 ISZERO PUSH2 0x1EC JUMPI PUSH1 0x0 DUP1 REVERT JUMPDEST POP PUSH2 0x159 PUSH6 0x5AF3107A4000 DUP2 JUMP JUMPDEST CALLVALUE DUP1 ISZERO PUSH2 0x206 JUMPI PUSH1 0x0 DUP1 REVERT JUMPDEST POP PUSH2 0x20F PUSH2 0x6DF JUMP JUMPDEST PUSH1 0x40 DUP1 MLOAD SWAP3 DUP4 MSTORE PUSH1 0x20 DUP4 ADD SWAP2 SWAP1 SWAP2 MSTORE ADD PUSH2 0x13B JUMP JUMPDEST CALLVALUE DUP1 ISZERO PUSH2 0x230 JUMPI PUSH1 0x0 DUP1 REVERT JUMPDEST POP PUSH2 0x159 PUSH2 0xBB8 DUP2 JUMP JUMPDEST CALLVALUE DUP1 ISZERO PUSH2 0x246 JUMPI PUSH1 0x0 DUP1 REVERT JUMPDEST POP PUSH2 0x25A PUSH2 0x255 CALLDATASIZE PUSH1 0x4 PUSH2 0xE11 JUMP JUMPDEST PUSH2 0x6FB JUMP JUMPDEST STOP JUMPDEST CALLVALUE DUP1 ISZERO PUSH2 0x268 JUMPI PUSH1 0x0 DUP1 REVERT JUMPDEST POP PUSH2 0x2C7 PUSH2 0x277 CALLDATASIZE PUSH1 0x4 PUSH2 0xE52 JUMP JUMPDEST PUSH1 0x0 PUSH1 0x20 DUP2 SWAP1 MSTORE SWAP1 DUP2 MSTORE PUSH1 0x40 SWAP1 KECCAK256 DUP1 SLOAD PUSH1 0x1 SWAP1 SWAP2 ADD SLOAD PUSH1 0x1 PUSH1 0x1 PUSH1 0xA0 SHL SUB DUP3 AND SWAP2 PUSH1 0x1 PUSH1 0x1 PUSH1 0x40 SHL SUB PUSH1 0x1 PUSH1 0xA0 SHL DUP3 DIV DUP2 AND SWAP3 PUSH3 0xFFFFFF PUSH1 0x1 PUSH1 0xE0 SHL DUP5 DIV AND SWAP3 PUSH1 0xFF PUSH1 0x1 PUSH1 0xF8 SHL SWAP1 SWAP2 DIV AND SWAP2 AND DUP6 JUMP JUMPDEST PUSH1 0x40 DUP1 MLOAD PUSH1 0x1 PUSH1 0x1 PUSH1 0xA0 SHL SUB SWAP1 SWAP7 AND DUP7 MSTORE PUSH1 0x1 PUSH1 0x1 PUSH1 0x40 SHL SUB SWAP5 DUP6 AND PUSH1 0x20 DUP8 ADD MSTORE PUSH3 0xFFFFFF SWAP1 SWAP4 AND SWAP3 DUP6 ADD SWAP3 SWAP1 SWAP3 MSTORE PUSH1 0xFF AND PUSH1 0x60 DUP5 ADD MSTORE AND PUSH1 0x80 DUP3 ADD MSTORE PUSH1 0xA0 ADD PUSH2 0x13B JUMP JUMPDEST CALLVALUE DUP1 ISZERO PUSH2 0x318 JUMPI PUSH1 0x0 DUP1 REVERT JUMPDEST POP PUSH2 0x159 PUSH2 0x832 JUMP JUMPDEST CALLVALUE DUP1 ISZERO PUSH2 0x32D JUMPI PUSH1 0x0 DUP1 REVERT JUMPDEST POP PUSH2 0x159 PUSH1 0x1 SLOAD DUP2 JUMP JUMPDEST CALLVALUE DUP1 ISZERO PUSH2 0x343 JUMPI PUSH1 0x0 DUP1 REVERT JUMPDEST POP PUSH2 0x159 PUSH1 0x96 DUP2 JUMP JUMPDEST CALLVALUE DUP1 ISZERO PUSH2 0x358 JUMPI PUSH1 0x0 DUP1 REVERT JUMPDEST POP PUSH2 0x159 PUSH2 0x367 CALLDATASIZE PUSH1 0x4 PUSH2 0xDE8 JUMP JUMPDEST PUSH1 0x2 PUSH1 0x20 MSTORE PUSH1 0x0 SWAP1 DUP2 MSTORE PUSH1 0x40 SWAP1 KECCAK256 SLOAD DUP2 JUMP JUMPDEST CALLVALUE DUP1 ISZERO PUSH2 0x385 JUMPI PUSH1 0x0 DUP1 REVERT JUMPDEST POP PUSH2 0x3AD PUSH32 0x0 DUP2 JUMP JUMPDEST PUSH1 0x40 MLOAD PUSH1 0x1 PUSH1 0x1 PUSH1 0xA0 SHL SUB SWAP1 SWAP2 AND DUP2 MSTORE PUSH1 0x20 ADD PUSH2 0x13B JUMP JUMPDEST PUSH2 0x25A PUSH2 0x3D3 CALLDATASIZE PUSH1 0x4 PUSH2 0xE6B JUMP JUMPDEST PUSH2 0x841 JUMP JUMPDEST CALLVALUE DUP1 ISZERO PUSH2 0x3E4 JUMPI PUSH1 0x0 DUP1 REVERT JUMPDEST POP PUSH2 0x159 PUSH2 0x3F3 CALLDATASIZE PUSH1 0x4 PUSH2 0xE11 JUMP JUMPDEST PUSH2 0xB2F JUMP JUMPDEST PUSH1 0x60 PUSH2 0xBB8 PUSH2 0x407 DUP5 DUP8 PUSH2 0xED0 JUMP JUMPDEST PUSH2 0xFFFF AND GT DUP1 PUSH2 0x425 JUMPI POP PUSH2 0xBB8 PUSH2 0x41F DUP4 DUP7 PUSH2 0xED0 JUMP JUMPDEST PUSH2 0xFFFF AND GT JUMPDEST ISZERO PUSH2 0x443 JUMPI PUSH1 0x40 MLOAD PUSH4 0x179A0545 PUSH1 0xE0 SHL DUP2 MSTORE PUSH1 0x4 ADD PUSH1 0x40 MLOAD DUP1 SWAP2 SUB SWAP1 REVERT JUMPDEST PUSH1 0x0 PUSH2 0x456 PUSH2 0xFFFF DUP1 DUP6 AND SWAP1 DUP7 AND PUSH2 0xEEA JUMP JUMPDEST SWAP1 POP PUSH1 0x0 DUP2 PUSH1 0x1 PUSH1 0x1 PUSH1 0x40 SHL SUB DUP2 GT ISZERO PUSH2 0x472 JUMPI PUSH2 0x472 PUSH2 0xF01 JUMP JUMPDEST PUSH1 0x40 MLOAD SWAP1 DUP1 DUP3 MSTORE DUP1 PUSH1 0x20 MUL PUSH1 0x20 ADD DUP3 ADD PUSH1 0x40 MSTORE DUP1 ISZERO PUSH2 0x4CB JUMPI DUP2 PUSH1 0x20 ADD JUMPDEST PUSH1 0x40 DUP1 MLOAD PUSH1 0xA0 DUP2 ADD DUP3 MSTORE PUSH1 0x0 DUP1 DUP3 MSTORE PUSH1 0x20 DUP1 DUP4 ADD DUP3 SWAP1 MSTORE SWAP3 DUP3 ADD DUP2 SWAP1 MSTORE PUSH1 0x60 DUP3 ADD DUP2 SWAP1 MSTORE PUSH1 0x80 DUP3 ADD MSTORE DUP3 MSTORE PUSH1 0x0 NOT SWAP1 SWAP3 ADD SWAP2 ADD DUP2 PUSH2 0x490 JUMPI SWAP1 POP JUMPDEST POP SWAP1 POP PUSH1 0x0 DUP7 JUMPDEST PUSH2 0x4DC DUP7 DUP10 PUSH2 0xED0 JUMP JUMPDEST PUSH2 0xFFFF AND DUP2 PUSH2 0xFFFF AND LT ISZERO PUSH2 0x5D8 JUMPI DUP9 JUMPDEST PUSH2 0x4F7 DUP9 DUP12 PUSH2 0xED0 JUMP JUMPDEST PUSH2 0xFFFF AND DUP2 PUSH2 0xFFFF AND LT ISZERO PUSH2 0x5CF JUMPI PUSH1 0x0 PUSH2 0x512 DUP3 DUP5 PUSH2 0xC37 JUMP JUMPDEST PUSH1 0x0 DUP2 DUP2 MSTORE PUSH1 0x20 DUP2 DUP2 MSTORE PUSH1 0x40 SWAP2 DUP3 SWAP1 KECCAK256 DUP3 MLOAD PUSH1 0xA0 DUP2 ADD DUP5 MSTORE DUP2 SLOAD PUSH1 0x1 PUSH1 0x1 PUSH1 0xA0 SHL SUB DUP2 AND DUP3 MSTORE PUSH1 0x1 PUSH1 0xA0 SHL DUP2 DIV PUSH1 0x1 PUSH1 0x1 PUSH1 0x40 SHL SUB SWAP1 DUP2 AND SWAP5 DUP4 ADD SWAP5 SWAP1 SWAP5 MSTORE PUSH1 0x1 PUSH1 0xE0 SHL DUP2 DIV PUSH3 0xFFFFFF AND SWAP5 DUP3 ADD SWAP5 SWAP1 SWAP5 MSTORE PUSH1 0x1 PUSH1 0xF8 SHL SWAP1 SWAP4 DIV PUSH1 0xFF AND PUSH1 0x60 DUP5 ADD MSTORE PUSH1 0x1 ADD SLOAD AND PUSH1 0x80 DUP3 ADD MSTORE SWAP1 SWAP2 POP PUSH2 0x58A DUP2 PUSH2 0xC61 JUMP JUMPDEST PUSH1 0xFF AND PUSH1 0x60 DUP3 ADD MSTORE DUP6 MLOAD DUP2 SWAP1 DUP8 SWAP1 DUP8 SWAP1 DUP2 LT PUSH2 0x5A8 JUMPI PUSH2 0x5A8 PUSH2 0xF17 JUMP JUMPDEST PUSH1 0x20 MUL PUSH1 0x20 ADD ADD DUP2 SWAP1 MSTORE POP DUP5 DUP1 PUSH2 0x5BE SWAP1 PUSH2 0xF2D JUMP JUMPDEST SWAP6 POP POP PUSH1 0x1 SWAP1 SWAP3 ADD SWAP2 POP PUSH2 0x4ED SWAP1 POP JUMP JUMPDEST POP PUSH1 0x1 ADD PUSH2 0x4D2 JUMP JUMPDEST POP SWAP1 SWAP8 SWAP7 POP POP POP POP POP POP POP JUMP JUMPDEST PUSH1 0x40 DUP1 MLOAD PUSH1 0xA0 DUP2 ADD DUP3 MSTORE PUSH1 0x0 DUP1 DUP3 MSTORE PUSH1 0x20 DUP3 ADD DUP2 SWAP1 MSTORE SWAP2 DUP2 ADD DUP3 SWAP1 MSTORE PUSH1 0x60 DUP2 ADD DUP3 SWAP1 MSTORE PUSH1 0x80 DUP2 ADD SWAP2 SWAP1 SWAP2 MSTORE PUSH2 0xBB8 DUP4 PUSH2 0xFFFF AND LT ISZERO DUP1 PUSH2 0x62B JUMPI POP PUSH2 0xBB8 DUP3 PUSH2 0xFFFF AND LT ISZERO JUMPDEST ISZERO PUSH2 0x649 JUMPI PUSH1 0x40 MLOAD PUSH4 0x179A0545 PUSH1 0xE0 SHL DUP2 MSTORE PUSH1 0x4 ADD PUSH1 0x40 MLOAD DUP1 SWAP2 SUB SWAP1 REVERT JUMPDEST PUSH1 0x0 PUSH2 0x655 DUP5 DUP5 PUSH2 0xC37 JUMP JUMPDEST PUSH1 0x0 DUP2 DUP2 MSTORE PUSH1 0x20 DUP2 DUP2 MSTORE PUSH1 0x40 SWAP2 DUP3 SWAP1 KECCAK256 DUP3 MLOAD PUSH1 0xA0 DUP2 ADD DUP5 MSTORE DUP2 SLOAD PUSH1 0x1 PUSH1 0x1 PUSH1 0xA0 SHL SUB DUP2 AND DUP3 MSTORE PUSH1 0x1 PUSH1 0xA0 SHL DUP2 DIV PUSH1 0x1 PUSH1 0x1 PUSH1 0x40 SHL SUB SWAP1 DUP2 AND SWAP5 DUP4 ADD SWAP5 SWAP1 SWAP5 MSTORE PUSH1 0x1 PUSH1 0xE0 SHL DUP2 DIV PUSH3 0xFFFFFF AND SWAP5 DUP3 ADD SWAP5 SWAP1 SWAP5 MSTORE PUSH1 0x1 PUSH1 0xF8 SHL SWAP1 SWAP4 DIV PUSH1 0xFF AND PUSH1 0x60 DUP5 ADD MSTORE PUSH1 0x1 ADD SLOAD AND PUSH1 0x80 DUP3 ADD MSTORE SWAP1 SWAP2 POP PUSH2 0x6CD DUP2 PUSH2 0xC61 JUMP JUMPDEST PUSH1 0xFF AND PUSH1 0x60 DUP3 ADD MSTORE SWAP2 POP POP JUMPDEST SWAP3 SWAP2 POP POP JUMP JUMPDEST PUSH1 0x0 DUP1 PUSH1 0x1 SLOAD PUSH2 0xBB8 DUP1 PUSH2 0x6F3 SWAP2 SWAP1 PUSH2 0xEEA JUMP JUMPDEST SWAP2 POP SWAP2 POP SWAP1 SWAP2 JUMP JUMPDEST PUSH2 0xBB8 DUP3 PUSH2 0xFFFF AND LT ISZERO DUP1 PUSH2 0x716 JUMPI POP PUSH2 0xBB8 DUP2 PUSH2 0xFFFF AND LT ISZERO JUMPDEST ISZERO PUSH2 0x734 JUMPI PUSH1 0x40 MLOAD PUSH4 0x179A0545 PUSH1 0xE0 SHL DUP2 MSTORE PUSH1 0x4 ADD PUSH1 0x40 MLOAD DUP1 SWAP2 SUB SWAP1 REVERT JUMPDEST PUSH1 0x0 PUSH2 0x740 DUP4 DUP4 PUSH2 0xC37 JUMP JUMPDEST PUSH1 0x0 DUP2 DUP2 MSTORE PUSH1 0x20 DUP2 DUP2 MSTORE PUSH1 0x40 DUP1 DUP4 KECCAK256 DUP1 SLOAD DUP3 MLOAD PUSH1 0xA0 DUP2 ADD DUP5 MSTORE PUSH1 0x1 PUSH1 0x1 PUSH1 0xA0 SHL SUB DUP3 AND DUP2 MSTORE PUSH1 0x1 PUSH1 0x1 PUSH1 0x40 SHL SUB PUSH1 0x1 PUSH1 0xA0 SHL DUP4 DIV DUP2 AND SWAP6 DUP3 ADD SWAP6 SWAP1 SWAP6 MSTORE PUSH3 0xFFFFFF PUSH1 0x1 PUSH1 0xE0 SHL DUP4 DIV AND SWAP4 DUP2 ADD SWAP4 SWAP1 SWAP4 MSTORE PUSH1 0xFF PUSH1 0x1 PUSH1 0xF8 SHL SWAP1 SWAP2 DIV AND PUSH1 0x60 DUP4 ADD DUP2 SWAP1 MSTORE PUSH1 0x1 DUP3 ADD SLOAD SWAP1 SWAP4 AND PUSH1 0x80 DUP4 ADD MSTORE SWAP4 SWAP5 POP SWAP1 SWAP2 SWAP1 PUSH2 0x7BE SWAP1 PUSH2 0xC61 JUMP JUMPDEST SWAP1 POP DUP2 PUSH1 0xFF AND DUP2 PUSH1 0xFF AND EQ PUSH2 0x82A JUMPI DUP3 SLOAD PUSH1 0x1 PUSH1 0x1 PUSH1 0xF8 SHL SUB AND PUSH1 0x1 PUSH1 0xF8 SHL PUSH1 0xFF DUP4 DUP2 AND SWAP2 DUP3 MUL SWAP3 SWAP1 SWAP3 OR DUP6 SSTORE PUSH1 0x40 DUP1 MLOAD SWAP3 DUP6 AND DUP4 MSTORE PUSH1 0x20 DUP4 ADD SWAP2 SWAP1 SWAP2 MSTORE DUP6 SWAP2 PUSH32 0x5CEB704F098CED1532CCBBB7A668D97069D9A831AE06D82F21B2FB54E486524C SWAP2 ADD PUSH1 0x40 MLOAD DUP1 SWAP2 SUB SWAP1 LOG2 JUMPDEST POP POP POP POP POP POP JUMP JUMPDEST PUSH2 0x83E PUSH2 0xBB8 DUP1 PUSH2 0xEEA JUMP JUMPDEST DUP2 JUMP JUMPDEST PUSH2 0xBB8 DUP4 PUSH2 0xFFFF AND LT ISZERO DUP1 PUSH2 0x85C JUMPI POP PUSH2 0xBB8 DUP3 PUSH2 0xFFFF AND LT ISZERO JUMPDEST ISZERO PUSH2 0x87A JUMPI PUSH1 0x40 MLOAD PUSH4 0x179A0545 PUSH1 0xE0 SHL DUP2 MSTORE PUSH1 0x4 ADD PUSH1 0x40 MLOAD DUP1 SWAP2 SUB SWAP1 REVERT JUMPDEST PUSH3 0xFFFFFF DUP2 PUSH3 0xFFFFFF AND GT ISZERO PUSH2 0x8A3 JUMPI PUSH1 0x40 MLOAD PUSH4 0x1CF7E9C5 PUSH1 0xE0 SHL DUP2 MSTORE PUSH1 0x4 ADD PUSH1 0x40 MLOAD DUP1 SWAP2 SUB SWAP1 REVERT JUMPDEST PUSH1 0x0 PUSH2 0x8AF DUP5 DUP5 PUSH2 0xC37 JUMP JUMPDEST SWAP1 POP PUSH1 0x0 PUSH2 0x8BD DUP6 DUP6 PUSH2 0xB2F JUMP JUMPDEST SWAP1 POP DUP1 CALLVALUE LT ISZERO PUSH2 0x8E0 JUMPI PUSH1 0x40 MLOAD PUSH4 0xCD1C8867 PUSH1 0xE0 SHL DUP2 MSTORE PUSH1 0x4 ADD PUSH1 0x40 MLOAD DUP1 SWAP2 SUB SWAP1 REVERT JUMPDEST PUSH1 0x0 DUP3 DUP2 MSTORE PUSH1 0x20 DUP2 DUP2 MSTORE PUSH1 0x40 DUP1 DUP4 KECCAK256 DUP2 MLOAD PUSH1 0xA0 DUP2 ADD DUP4 MSTORE DUP2 SLOAD PUSH1 0x1 PUSH1 0x1 PUSH1 0xA0 SHL SUB DUP2 AND DUP3 MSTORE PUSH1 0x1 PUSH1 0xA0 SHL DUP2 DIV PUSH1 0x1 PUSH1 0x1 PUSH1 0x40 SHL SUB SWAP1 DUP2 AND SWAP6 DUP4 ADD SWAP6 SWAP1 SWAP6 MSTORE PUSH1 0x1 PUSH1 0xE0 SHL DUP2 DIV PUSH3 0xFFFFFF AND SWAP4 DUP3 ADD SWAP4 SWAP1 SWAP4 MSTORE PUSH1 0x1 PUSH1 0xF8 SHL SWAP1 SWAP3 DIV PUSH1 0xFF AND PUSH1 0x60 DUP4 ADD MSTORE PUSH1 0x1 DUP2 ADD SLOAD SWAP1 SWAP3 AND PUSH1 0x80 DUP3 ADD MSTORE SWAP1 SWAP2 SWAP1 PUSH2 0x95A SWAP1 PUSH2 0xC61 JUMP JUMPDEST SWAP1 POP PUSH1 0x0 PUSH1 0xA DUP3 PUSH1 0xFF AND LT PUSH2 0x970 JUMPI PUSH1 0xA PUSH2 0x97B JUMP JUMPDEST PUSH2 0x97B DUP3 PUSH1 0x1 PUSH2 0xF46 JUMP JUMPDEST DUP4 SLOAD PUSH1 0xFF DUP1 DUP4 AND PUSH1 0x1 PUSH1 0xF8 SHL MUL PUSH1 0x1 PUSH1 0x1 PUSH1 0xF8 SHL SUB PUSH3 0xFFFFFF DUP12 AND PUSH1 0x1 PUSH1 0xE0 SHL MUL AND PUSH1 0x1 PUSH1 0x1 PUSH1 0xE0 SHL SUB PUSH1 0x1 PUSH1 0x1 PUSH1 0x40 SHL SUB TIMESTAMP AND PUSH1 0x1 PUSH1 0xA0 SHL DUP2 MUL PUSH8 0xFFFFFFFFFFFFFFFF PUSH1 0xA0 SHL NOT CALLER AND PUSH1 0x1 PUSH1 0x1 PUSH1 0xE0 SHL SUB NOT SWAP1 SWAP8 AND SWAP7 SWAP1 SWAP7 OR SWAP6 SWAP1 SWAP6 OR AND OR OR DUP7 SSTORE PUSH1 0x1 DUP7 ADD DUP1 SLOAD PUSH8 0xFFFFFFFFFFFFFFFF NOT AND SWAP1 SWAP3 OR SWAP1 SWAP2 SSTORE SWAP1 SWAP2 POP DUP3 AND PUSH1 0x0 SUB PUSH2 0xA17 JUMPI PUSH1 0x1 DUP1 SLOAD SWAP1 PUSH1 0x0 PUSH2 0xA11 DUP4 PUSH2 0xF2D JUMP JUMPDEST SWAP2 SWAP1 POP SSTORE POP JUMPDEST CALLER PUSH1 0x0 SWAP1 DUP2 MSTORE PUSH1 0x2 PUSH1 0x20 MSTORE PUSH1 0x40 DUP2 KECCAK256 DUP1 SLOAD SWAP2 PUSH2 0xA32 DUP4 PUSH2 0xF2D JUMP JUMPDEST SWAP2 SWAP1 POP SSTORE POP PUSH1 0x0 PUSH32 0x0 PUSH1 0x1 PUSH1 0x1 PUSH1 0xA0 SHL SUB AND CALLVALUE PUSH1 0x40 MLOAD PUSH1 0x0 PUSH1 0x40 MLOAD DUP1 DUP4 SUB DUP2 DUP6 DUP8 GAS CALL SWAP3 POP POP POP RETURNDATASIZE DUP1 PUSH1 0x0 DUP2 EQ PUSH2 0xAA4 JUMPI PUSH1 0x40 MLOAD SWAP2 POP PUSH1 0x1F NOT PUSH1 0x3F RETURNDATASIZE ADD AND DUP3 ADD PUSH1 0x40 MSTORE RETURNDATASIZE DUP3 MSTORE RETURNDATASIZE PUSH1 0x0 PUSH1 0x20 DUP5 ADD RETURNDATACOPY PUSH2 0xAA9 JUMP JUMPDEST PUSH1 0x60 SWAP2 POP JUMPDEST POP POP SWAP1 POP DUP1 PUSH2 0xACB JUMPI PUSH1 0x40 MLOAD PUSH4 0x12171D83 PUSH1 0xE3 SHL DUP2 MSTORE PUSH1 0x4 ADD PUSH1 0x40 MLOAD DUP1 SWAP2 SUB SWAP1 REVERT JUMPDEST PUSH1 0x40 DUP1 MLOAD PUSH3 0xFFFFFF DUP10 AND DUP2 MSTORE PUSH1 0xFF DUP5 AND PUSH1 0x20 DUP3 ADD MSTORE CALLVALUE DUP2 DUP4 ADD MSTORE TIMESTAMP PUSH1 0x1 PUSH1 0x1 PUSH1 0x40 SHL SUB AND PUSH1 0x60 DUP3 ADD MSTORE SWAP1 MLOAD CALLER SWAP2 DUP9 SWAP2 PUSH32 0xE5CB8A12F9E2F6737E48E82EF857A564D626062377ADAD35B00B3B0DFA84FA7 SWAP2 DUP2 SWAP1 SUB PUSH1 0x80 ADD SWAP1 LOG3 POP POP POP POP POP POP POP POP POP JUMP JUMPDEST PUSH1 0x0 PUSH2 0xBB8 DUP4 PUSH2 0xFFFF AND LT ISZERO DUP1 PUSH2 0xB4C JUMPI POP PUSH2 0xBB8 DUP3 PUSH2 0xFFFF AND LT ISZERO JUMPDEST ISZERO PUSH2 0xB6A JUMPI PUSH1 0x40 MLOAD PUSH4 0x179A0545 PUSH1 0xE0 SHL DUP2 MSTORE PUSH1 0x4 ADD PUSH1 0x40 MLOAD DUP1 SWAP2 SUB SWAP1 REVERT JUMPDEST PUSH1 0x0 PUSH2 0xB76 DUP5 DUP5 PUSH2 0xC37 JUMP JUMPDEST PUSH1 0x0 DUP2 DUP2 MSTORE PUSH1 0x20 DUP2 DUP2 MSTORE PUSH1 0x40 DUP1 DUP4 KECCAK256 DUP2 MLOAD PUSH1 0xA0 DUP2 ADD DUP4 MSTORE DUP2 SLOAD PUSH1 0x1 PUSH1 0x1 PUSH1 0xA0 SHL SUB DUP2 AND DUP3 MSTORE PUSH1 0x1 PUSH1 0xA0 SHL DUP2 DIV PUSH1 0x1 PUSH1 0x1 PUSH1 0x40 SHL SUB SWAP1 DUP2 AND SWAP6 DUP4 ADD SWAP6 SWAP1 SWAP6 MSTORE PUSH1 0x1 PUSH1 0xE0 SHL DUP2 DIV PUSH3 0xFFFFFF AND SWAP4 DUP3 ADD SWAP4 SWAP1 SWAP4 MSTORE PUSH1 0x1 PUSH1 0xF8 SHL SWAP1 SWAP3 DIV PUSH1 0xFF AND PUSH1 0x60 DUP4 ADD MSTORE PUSH1 0x1 DUP2 ADD SLOAD SWAP1 SWAP3 AND PUSH1 0x80 DUP3 ADD MSTORE SWAP3 SWAP4 POP SWAP2 PUSH2 0xBF1 SWAP1 PUSH2 0xC61 JUMP JUMPDEST SWAP1 POP PUSH6 0x5AF3107A4000 PUSH1 0x0 JUMPDEST DUP3 PUSH1 0xFF AND DUP2 PUSH1 0xFF AND LT ISZERO PUSH2 0xC2C JUMPI PUSH1 0x64 PUSH2 0xC18 PUSH1 0x96 DUP5 PUSH2 0xEEA JUMP JUMPDEST PUSH2 0xC22 SWAP2 SWAP1 PUSH2 0xF5F JUMP JUMPDEST SWAP2 POP PUSH1 0x1 ADD PUSH2 0xBFD JUMP JUMPDEST POP SWAP7 SWAP6 POP POP POP POP POP POP JUMP JUMPDEST PUSH1 0x0 DUP3 PUSH2 0xFFFF AND PUSH2 0xBB8 DUP4 PUSH2 0xFFFF AND PUSH2 0xC50 SWAP2 SWAP1 PUSH2 0xEEA JUMP JUMPDEST PUSH2 0xC5A SWAP2 SWAP1 PUSH2 0xF81 JUMP JUMPDEST SWAP4 SWAP3 POP POP POP JUMP JUMPDEST PUSH1 0x0 DUP2 PUSH1 0x80 ADD MLOAD PUSH1 0x1 PUSH1 0x1 PUSH1 0x40 SHL SUB AND PUSH1 0x0 SUB PUSH2 0xC80 JUMPI POP PUSH1 0x0 SWAP2 SWAP1 POP JUMP JUMPDEST PUSH1 0x0 DUP3 PUSH1 0x80 ADD MLOAD PUSH1 0x1 PUSH1 0x1 PUSH1 0x40 SHL SUB AND TIMESTAMP PUSH2 0xC9B SWAP2 SWAP1 PUSH2 0xF94 JUMP JUMPDEST SWAP1 POP PUSH1 0x0 PUSH2 0xCAB PUSH2 0xE10 DUP4 PUSH2 0xF5F JUMP JUMPDEST SWAP1 POP DUP4 PUSH1 0x60 ADD MLOAD PUSH1 0xFF AND DUP2 LT PUSH2 0xCC5 JUMPI POP PUSH1 0x0 SWAP4 SWAP3 POP POP POP JUMP JUMPDEST DUP1 DUP5 PUSH1 0x60 ADD MLOAD PUSH2 0xCD5 SWAP2 SWAP1 PUSH2 0xFA7 JUMP JUMPDEST SWAP5 SWAP4 POP POP POP POP JUMP JUMPDEST DUP1 CALLDATALOAD PUSH2 0xFFFF DUP2 AND DUP2 EQ PUSH2 0xCEF JUMPI PUSH1 0x0 DUP1 REVERT JUMPDEST SWAP2 SWAP1 POP JUMP JUMPDEST PUSH1 0x0 DUP1 PUSH1 0x0 DUP1 PUSH1 0x80 DUP6 DUP8 SUB SLT ISZERO PUSH2 0xD0A JUMPI PUSH1 0x0 DUP1 REVERT JUMPDEST PUSH2 0xD13 DUP6 PUSH2 0xCDD JUMP JUMPDEST SWAP4 POP PUSH2 0xD21 PUSH1 0x20 DUP7 ADD PUSH2 0xCDD JUMP JUMPDEST SWAP3 POP PUSH2 0xD2F PUSH1 0x40 DUP7 ADD PUSH2 0xCDD JUMP JUMPDEST SWAP2 POP PUSH2 0xD3D PUSH1 0x60 DUP7 ADD PUSH2 0xCDD JUMP JUMPDEST SWAP1 POP SWAP3 SWAP6 SWAP2 SWAP5 POP SWAP3 POP JUMP JUMPDEST PUSH1 0x1 DUP1 PUSH1 0xA0 SHL SUB DUP2 MLOAD AND DUP3 MSTORE PUSH1 0x1 PUSH1 0x1 PUSH1 0x40 SHL SUB PUSH1 0x20 DUP3 ADD MLOAD AND PUSH1 0x20 DUP4 ADD MSTORE PUSH3 0xFFFFFF PUSH1 0x40 DUP3 ADD MLOAD AND PUSH1 0x40 DUP4 ADD MSTORE PUSH1 0xFF PUSH1 0x60 DUP3 ADD MLOAD AND PUSH1 0x60 DUP4 ADD MSTORE PUSH1 0x1 PUSH1 0x1 PUSH1 0x40 SHL SUB PUSH1 0x80 DUP3 ADD MLOAD AND PUSH1 0x80 DUP4 ADD MSTORE POP POP JUMP JUMPDEST PUSH1 0x20 DUP1 DUP3 MSTORE DUP3 MLOAD DUP3 DUP3 ADD DUP2 SWAP1 MSTORE PUSH1 0x0 SWAP2 DUP5 ADD SWAP1 PUSH1 0x40 DUP5 ADD SWAP1 DUP4 JUMPDEST DUP2 DUP2 LT ISZERO PUSH2 0xDDD JUMPI PUSH2 0xDC7 DUP4 DUP6 MLOAD PUSH2 0xD48 JUMP JUMPDEST PUSH1 0x20 SWAP4 SWAP1 SWAP4 ADD SWAP3 PUSH1 0xA0 SWAP3 SWAP1 SWAP3 ADD SWAP2 PUSH1 0x1 ADD PUSH2 0xDB4 JUMP JUMPDEST POP SWAP1 SWAP6 SWAP5 POP POP POP POP POP JUMP JUMPDEST PUSH1 0x0 PUSH1 0x20 DUP3 DUP5 SUB SLT ISZERO PUSH2 0xDFA JUMPI PUSH1 0x0 DUP1 REVERT JUMPDEST DUP2 CALLDATALOAD PUSH1 0x1 PUSH1 0x1 PUSH1 0xA0 SHL SUB DUP2 AND DUP2 EQ PUSH2 0xC5A JUMPI PUSH1 0x0 DUP1 REVERT JUMPDEST PUSH1 0x0 DUP1 PUSH1 0x40 DUP4 DUP6 SUB SLT ISZERO PUSH2 0xE24 JUMPI PUSH1 0x0 DUP1 REVERT JUMPDEST PUSH2 0xE2D DUP4 PUSH2 0xCDD JUMP JUMPDEST SWAP2 POP PUSH2 0xE3B PUSH1 0x20 DUP5 ADD PUSH2 0xCDD JUMP JUMPDEST SWAP1 POP SWAP3 POP SWAP3 SWAP1 POP JUMP JUMPDEST PUSH1 0xA0 DUP2 ADD PUSH2 0x6D9 DUP3 DUP5 PUSH2 0xD48 JUMP JUMPDEST PUSH1 0x0 PUSH1 0x20 DUP3 DUP5 SUB SLT ISZERO PUSH2 0xE64 JUMPI PUSH1 0x0 DUP1 REVERT JUMPDEST POP CALLDATALOAD SWAP2 SWAP1 POP JUMP JUMPDEST PUSH1 0x0 DUP1 PUSH1 0x0 PUSH1 0x60 DUP5 DUP7 SUB SLT ISZERO PUSH2 0xE80 JUMPI PUSH1 0x0 DUP1 REVERT JUMPDEST PUSH2 0xE89 DUP5 PUSH2 0xCDD JUMP JUMPDEST SWAP3 POP PUSH2 0xE97 PUSH1 0x20 DUP6 ADD PUSH2 0xCDD JUMP JUMPDEST SWAP2 POP PUSH1 0x40 DUP5 ADD CALLDATALOAD PUSH3 0xFFFFFF DUP2 AND DUP2 EQ PUSH2 0xEAF JUMPI PUSH1 0x0 DUP1 REVERT JUMPDEST DUP1 SWAP2 POP POP SWAP3 POP SWAP3 POP SWAP3 JUMP JUMPDEST PUSH4 0x4E487B71 PUSH1 0xE0 SHL PUSH1 0x0 MSTORE PUSH1 0x11 PUSH1 0x4 MSTORE PUSH1 0x24 PUSH1 0x0 REVERT JUMPDEST PUSH2 0xFFFF DUP2 DUP2 AND DUP4 DUP3 AND ADD SWAP1 DUP2 GT ISZERO PUSH2 0x6D9 JUMPI PUSH2 0x6D9 PUSH2 0xEBA JUMP JUMPDEST DUP1 DUP3 MUL DUP2 ISZERO DUP3 DUP3 DIV DUP5 EQ OR PUSH2 0x6D9 JUMPI PUSH2 0x6D9 PUSH2 0xEBA JUMP JUMPDEST PUSH4 0x4E487B71 PUSH1 0xE0 SHL PUSH1 0x0 MSTORE PUSH1 0x41 PUSH1 0x4 MSTORE PUSH1 0x24 PUSH1 0x0 REVERT JUMPDEST PUSH4 0x4E487B71 PUSH1 0xE0 SHL PUSH1 0x0 MSTORE PUSH1 0x32 PUSH1 0x4 MSTORE PUSH1 0x24 PUSH1 0x0 REVERT JUMPDEST PUSH1 0x0 PUSH1 0x1 DUP3 ADD PUSH2 0xF3F JUMPI PUSH2 0xF3F PUSH2 0xEBA JUMP JUMPDEST POP PUSH1 0x1 ADD SWAP1 JUMP JUMPDEST PUSH1 0xFF DUP2 DUP2 AND DUP4 DUP3 AND ADD SWAP1 DUP2 GT ISZERO PUSH2 0x6D9 JUMPI PUSH2 0x6D9 PUSH2 0xEBA JUMP JUMPDEST PUSH1 0x0 DUP3 PUSH2 0xF7C JUMPI PUSH4 0x4E487B71 PUSH1 0xE0 SHL PUSH1 0x0 MSTORE PUSH1 0x12 PUSH1 0x4 MSTORE PUSH1 0x24 PUSH1 0x0 REVERT JUMPDEST POP DIV SWAP1 JUMP JUMPDEST DUP1 DUP3 ADD DUP1 DUP3 GT ISZERO PUSH2 0x6D9 JUMPI PUSH2 0x6D9 PUSH2 0xEBA JUMP JUMPDEST DUP2 DUP2 SUB DUP2 DUP2 GT ISZERO PUSH2 0x6D9 JUMPI PUSH2 0x6D9 PUSH2 0xEBA JUMP JUMPDEST PUSH1 0xFF DUP3 DUP2 AND DUP3 DUP3 AND SUB SWAP1 DUP2 GT ISZERO PUSH2 0x6D9 JUMPI PUSH2 0x6D9 PUSH2 0xEBA JUMP INVALID LOG2 PUSH5 0x6970667358 0x22 SLT KECCAK256 LOG1 OR SLOAD PUSH32 0xCF4ED7A37E023444B19AF149850E18BC98038A4BF48887A3D8E61E2264736F6C PUSH4 0x4300081C STOP CALLER "
        },
        "methodIdentifiers": {
          "BASE_PIXEL_PRICE()": "5a4c91ad",
          "CANVAS_HEIGHT()": "ed4127df",
          "CANVAS_WIDTH()": "71bf439e",
          "HEAT_DECAY_TIME()": "50d4e16c",
          "HEAT_MULTIPLIER()": "a5db5bf4",
          "MAX_HEAT_LEVEL()": "3fbf2ccd",
          "TOTAL_PIXELS()": "a29497c2",
          "decayPixelHeat(uint16,uint16)": "87da81e7",
          "getCanvasRegion(uint16,uint16,uint16,uint16)": "16cc12d7",
          "getCanvasStats()": "5d6304df",
          "getPixel(uint16,uint16)": "53ba9c2f",
          "getPixelPrice(uint16,uint16)": "f186bb79",
          "getUserStats(address)": "4e43603a",
          "pixels(uint256)": "8da7f232",
          "placePixel(uint16,uint16,uint24)": "d333a81c",
          "projectWallet()": "beb08ab9",
          "totalPixelsPlaced()": "a52ac171",
          "userPixelCount(address)": "b3459e8a"
        }
      }
    }
  }
}