{
  "contracts/Chroma.sol": {
    "Chroma": {
      "abi": [
        {
          "inputs": [
            {
              "internalType": "address",
              "name": "_projectWallet",
              "type": "address"
            },
            {
              "internalType": "address",
              "name": "_fountainContract",
              "type": "address"
            }
          ],
          "stateMutability": "nonpayable",
          "type": "constructor"
        },
        {
          "inputs": [],
          "name": "InsufficientPayment",
          "type": "error"
        },
        {
          "inputs": [],
          "name": "InvalidColor",
          "type": "error"
        },
        {
          "inputs": [],
          "name": "InvalidCoordinates",
          "type": "error"
        },
        {
          "inputs": [],
          "name": "InvalidFountainContract",
          "type": "error"
        },
        {
          "inputs": [],
          "name": "PixelIsLocked",
          "type": "error"
        },
        {
          "inputs": [],
          "name": "TransferFailed",
          "type": "error"
        },
        {
          "inputs": [],
          "name": "UserOnCooldown",
          "type": "error"
        },
        {
          "anonymous": false,
          "inputs": [
            {
              "indexed": true,
              "internalType": "uint256",
              "name": "coordinate",
              "type": "uint256"
            },
            {
              "indexed": false,
              "internalType": "uint8",
              "name": "oldHeatLevel",
              "type": "uint8"
            },
            {
              "indexed": false,
              "internalType": "uint8",
              "name": "newHeatLevel",
              "type": "uint8"
            }
          ],
          "name": "HeatDecayed",
          "type": "event"
        },
        {
          "anonymous": false,
          "inputs": [
            {
              "indexed": true,
              "internalType": "uint256",
              "name": "coordinate",
              "type": "uint256"
            },
            {
              "indexed": true,
              "internalType": "address",
              "name": "placer",
              "type": "address"
            },
            {
              "indexed": false,
              "internalType": "uint24",
              "name": "color",
              "type": "uint24"
            },
            {
              "indexed": false,
              "internalType": "uint8",
              "name": "heatLevel",
              "type": "uint8"
            },
            {
              "indexed": false,
              "internalType": "uint256",
              "name": "pricePaid",
              "type": "uint256"
            },
            {
              "indexed": false,
              "internalType": "bool",
              "name": "isLocked",
              "type": "bool"
            },
            {
              "indexed": false,
              "internalType": "uint64",
              "name": "timestamp",
              "type": "uint64"
            }
          ],
          "name": "PixelChanged",
          "type": "event"
        },
        {
          "anonymous": false,
          "inputs": [
            {
              "indexed": true,
              "internalType": "uint256",
              "name": "coordinate",
              "type": "uint256"
            },
            {
              "indexed": true,
              "internalType": "address",
              "name": "locker",
              "type": "address"
            },
            {
              "indexed": false,
              "internalType": "uint256",
              "name": "lockPrice",
              "type": "uint256"
            },
            {
              "indexed": false,
              "internalType": "uint64",
              "name": "lockedUntil",
              "type": "uint64"
            }
          ],
          "name": "PixelLocked",
          "type": "event"
        },
        {
          "inputs": [],
          "name": "BASE_PIXEL_PRICE",
          "outputs": [
            {
              "internalType": "uint256",
              "name": "",
              "type": "uint256"
            }
          ],
          "stateMutability": "view",
          "type": "function"
        },
        {
          "inputs": [],
          "name": "CANVAS_HEIGHT",
          "outputs": [
            {
              "internalType": "uint256",
              "name": "",
              "type": "uint256"
            }
          ],
          "stateMutability": "view",
          "type": "function"
        },
        {
          "inputs": [],
          "name": "CANVAS_WIDTH",
          "outputs": [
            {
              "internalType": "uint256",
              "name": "",
              "type": "uint256"
            }
          ],
          "stateMutability": "view",
          "type": "function"
        },
        {
          "inputs": [],
          "name": "HEAT_DECAY_TIME",
          "outputs": [
            {
              "internalType": "uint256",
              "name": "",
              "type": "uint256"
            }
          ],
          "stateMutability": "view",
          "type": "function"
        },
        {
          "inputs": [],
          "name": "HEAT_MULTIPLIER",
          "outputs": [
            {
              "internalType": "uint256",
              "name": "",
              "type": "uint256"
            }
          ],
          "stateMutability": "view",
          "type": "function"
        },
        {
          "inputs": [],
          "name": "LOCK_DURATION",
          "outputs": [
            {
              "internalType": "uint256",
              "name": "",
              "type": "uint256"
            }
          ],
          "stateMutability": "view",
          "type": "function"
        },
        {
          "inputs": [],
          "name": "LOCK_PRICE_MULTIPLIER",
          "outputs": [
            {
              "internalType": "uint256",
              "name": "",
              "type": "uint256"
            }
          ],
          "stateMutability": "view",
          "type": "function"
        },
        {
          "inputs": [],
          "name": "MAX_HEAT_LEVEL",
          "outputs": [
            {
              "internalType": "uint256",
              "name": "",
              "type": "uint256"
            }
          ],
          "stateMutability": "view",
          "type": "function"
        },
        {
          "inputs": [],
          "name": "TOTAL_PIXELS",
          "outputs": [
            {
              "internalType": "uint256",
              "name": "",
              "type": "uint256"
            }
          ],
          "stateMutability": "view",
          "type": "function"
        },
        {
          "inputs": [],
          "name": "USER_COOLDOWN",
          "outputs": [
            {
              "internalType": "uint256",
              "name": "",
              "type": "uint256"
            }
          ],
          "stateMutability": "view",
          "type": "function"
        },
        {
          "inputs": [
            {
              "internalType": "uint16",
              "name": "x",
              "type": "uint16"
            },
            {
              "internalType": "uint16",
              "name": "y",
              "type": "uint16"
            }
          ],
          "name": "decayPixelHeat",
          "outputs": [],
          "stateMutability": "nonpayable",
          "type": "function"
        },
        {
          "inputs": [],
          "name": "fountainContract",
          "outputs": [
            {
              "internalType": "address",
              "name": "",
              "type": "address"
            }
          ],
          "stateMutability": "view",
          "type": "function"
        },
        {
          "inputs": [
            {
              "internalType": "uint16",
              "name": "startX",
              "type": "uint16"
            },
            {
              "internalType": "uint16",
              "name": "startY",
              "type": "uint16"
            },
            {
              "internalType": "uint16",
              "name": "width",
              "type": "uint16"
            },
            {
              "internalType": "uint16",
              "name": "height",
              "type": "uint16"
            }
          ],
          "name": "getCanvasRegion",
          "outputs": [
            {
              "components": [
                {
                  "internalType": "address",
                  "name": "owner",
                  "type": "address"
                },
                {
                  "internalType": "uint64",
                  "name": "timestamp",
                  "type": "uint64"
                },
                {
                  "internalType": "uint24",
                  "name": "color",
                  "type": "uint24"
                },
                {
                  "internalType": "uint8",
                  "name": "heatLevel",
                  "type": "uint8"
                },
                {
                  "internalType": "uint64",
                  "name": "lastPlacedTime",
                  "type": "uint64"
                },
                {
                  "internalType": "uint64",
                  "name": "lockedUntil",
                  "type": "uint64"
                },
                {
                  "internalType": "bool",
                  "name": "isLocked",
                  "type": "bool"
                }
              ],
              "internalType": "struct Chroma.Pixel[]",
              "name": "",
              "type": "tuple[]"
            }
          ],
          "stateMutability": "view",
          "type": "function"
        },
        {
          "inputs": [],
          "name": "getCanvasStats",
          "outputs": [
            {
              "internalType": "uint256",
              "name": "totalPlaced",
              "type": "uint256"
            },
            {
              "internalType": "uint256",
              "name": "canvasSize",
              "type": "uint256"
            }
          ],
          "stateMutability": "view",
          "type": "function"
        },
        {
          "inputs": [
            {
              "internalType": "uint16",
              "name": "x",
              "type": "uint16"
            },
            {
              "internalType": "uint16",
              "name": "y",
              "type": "uint16"
            }
          ],
          "name": "getLockPrice",
          "outputs": [
            {
              "internalType": "uint256",
              "name": "",
              "type": "uint256"
            }
          ],
          "stateMutability": "view",
          "type": "function"
        },
        {
          "inputs": [
            {
              "internalType": "uint16",
              "name": "x",
              "type": "uint16"
            },
            {
              "internalType": "uint16",
              "name": "y",
              "type": "uint16"
            }
          ],
          "name": "getPixel",
          "outputs": [
            {
              "components": [
                {
                  "internalType": "address",
                  "name": "owner",
                  "type": "address"
                },
                {
                  "internalType": "uint64",
                  "name": "timestamp",
                  "type": "uint64"
                },
                {
                  "internalType": "uint24",
                  "name": "color",
                  "type": "uint24"
                },
                {
                  "internalType": "uint8",
                  "name": "heatLevel",
                  "type": "uint8"
                },
                {
                  "internalType": "uint64",
                  "name": "lastPlacedTime",
                  "type": "uint64"
                },
                {
                  "internalType": "uint64",
                  "name": "lockedUntil",
                  "type": "uint64"
                },
                {
                  "internalType": "bool",
                  "name": "isLocked",
                  "type": "bool"
                }
              ],
              "internalType": "struct Chroma.Pixel",
              "name": "",
              "type": "tuple"
            }
          ],
          "stateMutability": "view",
          "type": "function"
        },
        {
          "inputs": [
            {
              "internalType": "uint16",
              "name": "x",
              "type": "uint16"
            },
            {
              "internalType": "uint16",
              "name": "y",
              "type": "uint16"
            }
          ],
          "name": "getPixelPrice",
          "outputs": [
            {
              "internalType": "uint256",
              "name": "",
              "type": "uint256"
            }
          ],
          "stateMutability": "view",
          "type": "function"
        },
        {
          "inputs": [
            {
              "internalType": "address",
              "name": "user",
              "type": "address"
            }
          ],
          "name": "getUserCooldownTime",
          "outputs": [
            {
              "internalType": "uint256",
              "name": "",
              "type": "uint256"
            }
          ],
          "stateMutability": "view",
          "type": "function"
        },
        {
          "inputs": [
            {
              "internalType": "address",
              "name": "user",
              "type": "address"
            }
          ],
          "name": "getUserStats",
          "outputs": [
            {
              "internalType": "uint256",
              "name": "pixelCount",
              "type": "uint256"
            }
          ],
          "stateMutability": "view",
          "type": "function"
        },
        {
          "inputs": [
            {
              "internalType": "address",
              "name": "user",
              "type": "address"
            }
          ],
          "name": "isUserOnCooldown",
          "outputs": [
            {
              "internalType": "bool",
              "name": "",
              "type": "bool"
            }
          ],
          "stateMutability": "view",
          "type": "function"
        },
        {
          "inputs": [
            {
              "internalType": "uint16",
              "name": "x",
              "type": "uint16"
            },
            {
              "internalType": "uint16",
              "name": "y",
              "type": "uint16"
            },
            {
              "internalType": "uint24",
              "name": "color",
              "type": "uint24"
            }
          ],
          "name": "lockPixel",
          "outputs": [],
          "stateMutability": "payable",
          "type": "function"
        },
        {
          "inputs": [
            {
              "internalType": "uint256",
              "name": "",
              "type": "uint256"
            }
          ],
          "name": "pixels",
          "outputs": [
            {
              "internalType": "address",
              "name": "owner",
              "type": "address"
            },
            {
              "internalType": "uint64",
              "name": "timestamp",
              "type": "uint64"
            },
            {
              "internalType": "uint24",
              "name": "color",
              "type": "uint24"
            },
            {
              "internalType": "uint8",
              "name": "heatLevel",
              "type": "uint8"
            },
            {
              "internalType": "uint64",
              "name": "lastPlacedTime",
              "type": "uint64"
            },
            {
              "internalType": "uint64",
              "name": "lockedUntil",
              "type": "uint64"
            },
            {
              "internalType": "bool",
              "name": "isLocked",
              "type": "bool"
            }
          ],
          "stateMutability": "view",
          "type": "function"
        },
        {
          "inputs": [
            {
              "internalType": "uint16",
              "name": "x",
              "type": "uint16"
            },
            {
              "internalType": "uint16",
              "name": "y",
              "type": "uint16"
            },
            {
              "internalType": "uint24",
              "name": "color",
              "type": "uint24"
            }
          ],
          "name": "placePixel",
          "outputs": [],
          "stateMutability": "payable",
          "type": "function"
        },
        {
          "inputs": [],
          "name": "projectWallet",
          "outputs": [
            {
              "internalType": "address",
              "name": "",
              "type": "address"
            }
          ],
          "stateMutability": "view",
          "type": "function"
        },
        {
          "inputs": [],
          "name": "totalPixelsPlaced",
          "outputs": [
            {
              "internalType": "uint256",
              "name": "",
              "type": "uint256"
            }
          ],
          "stateMutability": "view",
          "type": "function"
        },
        {
          "inputs": [
            {
              "internalType": "address",
              "name": "",
              "type": "address"
            }
          ],
          "name": "userLastPlacement",
          "outputs": [
            {
              "internalType": "uint64",
              "name": "",
              "type": "uint64"
            }
          ],
          "stateMutability": "view",
          "type": "function"
        },
        {
          "inputs": [
            {
              "internalType": "address",
              "name": "",
              "type": "address"
            }
          ],
          "name": "userPixelCount",
          "outputs": [
            {
              "internalType": "uint256",
              "name": "",
              "type": "uint256"
            }
          ],
          "stateMutability": "view",
          "type": "function"
        }
      ],
      "evm": {
        "bytecode": {
          "linkReferences": {},
          "object": "60c060405234801561001057600080fd5b50604051611ca8380380611ca883398101604081905261002f91610113565b6001600160a01b03821661008a5760405162461bcd60e51b815260206004820152601660248201527f496e76616c69642070726f6a6563742077616c6c65740000000000000000000060448201526064015b60405180910390fd5b6001600160a01b0381166100e05760405162461bcd60e51b815260206004820152601960248201527f496e76616c696420666f756e7461696e20636f6e7472616374000000000000006044820152606401610081565b6001600160a01b039182166080521660a052610146565b80516001600160a01b038116811461010e57600080fd5b919050565b6000806040838503121561012657600080fd5b61012f836100f7565b915061013d602084016100f7565b90509250929050565b60805160a051611b21610187600039600081816102370152818161104a015261152901526000818161056601528181610fb601526114950152611b216000f3fe60806040526004361061019c5760003560e01c806387da81e7116100ec578063b572fa8b1161008a578063d333a81c11610064578063d333a81c1461059d578063ed4127df14610391578063f186bb79146105b0578063f2faace0146105d057600080fd5b8063b572fa8b14610541578063beb08ab914610554578063ca838eb51461058857600080fd5b8063a52ac171116100c6578063a52ac171146104b9578063a5db5bf4146104cf578063aa728de1146104e4578063b3459e8a1461051457600080fd5b806387da81e7146103a75780638da7f232146103c9578063a29497c2146104a457600080fd5b80634e43603a11610159578063583aa28811610133578063583aa288146102ff5780635a4c91ad1461034d5780635d6304df1461036757806371bf439e1461039157600080fd5b80634e43603a1461029c57806350d4e16c1461028657806353ba9c2f146102d257600080fd5b806316cc12d7146101a15780631aefa053146101d7578063342bdb8b14610205578063382f565c146102255780633fbf2ccd14610271578063485d383414610286575b600080fd5b3480156101ad57600080fd5b506101c16101bc3660046117f0565b6105e5565b6040516101ce91906118c5565b60405180910390f35b3480156101e357600080fd5b506101f76101f2366004611913565b610805565b6040519081526020016101ce565b34801561021157600080fd5b506101f7610220366004611946565b61090f565b34801561023157600080fd5b506102597f000000000000000000000000000000000000000000000000000000000000000081565b6040516001600160a01b0390911681526020016101ce565b34801561027d57600080fd5b506101f7600a81565b34801561029257600080fd5b506101f7610e1081565b3480156102a857600080fd5b506101f76102b7366004611946565b6001600160a01b031660009081526002602052604090205490565b3480156102de57600080fd5b506102f26102ed366004611913565b610962565b6040516101ce919061196f565b34801561030b57600080fd5b5061033561031a366004611946565b6003602052600090815260409020546001600160401b031681565b6040516001600160401b0390911681526020016101ce565b34801561035957600080fd5b506101f7655af3107a400081565b34801561037357600080fd5b5061037c610abf565b604080519283526020830191909152016101ce565b34801561039d57600080fd5b506101f7610bb881565b3480156103b357600080fd5b506103c76103c2366004611913565b610adb565b005b3480156103d557600080fd5b5061044c6103e436600461197d565b600060208190529081526040902080546001909101546001600160a01b038216916001600160401b03600160a01b820481169262ffffff600160e01b8404169260ff600160f81b90910481169282811692600160401b810490911691600160801b9091041687565b604080516001600160a01b0390981688526001600160401b03968716602089015262ffffff9095169487019490945260ff9092166060860152831660808501529190911660a0830152151560c082015260e0016101ce565b3480156104b057600080fd5b506101f7610c32565b3480156104c557600080fd5b506101f760015481565b3480156104db57600080fd5b506101f7609681565b3480156104f057600080fd5b506105046104ff366004611946565b610c41565b60405190151581526020016101ce565b34801561052057600080fd5b506101f761052f366004611946565b60026020526000908152604090205481565b6103c761054f366004611996565b610c78565b34801561056057600080fd5b506102597f000000000000000000000000000000000000000000000000000000000000000081565b34801561059457600080fd5b506101f7603c81565b6103c76105ab366004611996565b61119a565b3480156105bc57600080fd5b506101f76105cb366004611913565b61161a565b3480156105dc57600080fd5b506101f7603281565b6060610bb86105f484876119fb565b61ffff1611806106125750610bb861060c83866119fb565b61ffff16115b156106305760405163179a054560e01b815260040160405180910390fd5b600061064361ffff808516908616611a15565b90506000816001600160401b0381111561065f5761065f611a2c565b6040519080825280602002602001820160405280156106c657816020015b6040805160e08101825260008082526020808301829052928201819052606082018190526080820181905260a0820181905260c0820152825260001990920191018161067d5790505b5090506000865b6106d786896119fb565b61ffff168161ffff1610156107f857885b6106f2888b6119fb565b61ffff168161ffff1610156107ef57600061070d8284611742565b60008181526020818152604091829020825160e08101845281546001600160a01b03811682526001600160401b03600160a01b820481169483019490945262ffffff600160e01b8204169482019490945260ff600160f81b909404841660608201526001909101548083166080830152600160401b810490921660a0820152600160801b909104909116151560c08201529091506107aa81611765565b60ff166060820152855181908790879081106107c8576107c8611a42565b602002602001018190525084806107de90611a58565b955050600190920191506106e89050565b506001016106cd565b5090979650505050505050565b6000610bb88361ffff161015806108225750610bb88261ffff1610155b156108405760405163179a054560e01b815260040160405180910390fd5b600061084c8484611742565b600081815260208181526040808320815160e08101835281546001600160a01b03811682526001600160401b03600160a01b820481169583019590955262ffffff600160e01b8204169382019390935260ff600160f81b9093048316606082015260018201548085166080830152600160401b810490941660a0820152600160801b909304909116151560c08301529293506108e790611765565b905060006108f5878761161a565b9050610902603282611a15565b9450505050505b92915050565b6001600160a01b038116600090815260036020526040812054819061093f90603c906001600160401b0316611a71565b90504281116109515750600092915050565b61095b4282611a84565b9392505050565b6040805160e081018252600080825260208201819052918101829052606081018290526080810182905260a0810182905260c0810191909152610bb88361ffff161015806109b65750610bb88261ffff1610155b156109d45760405163179a054560e01b815260040160405180910390fd5b60006109e08484611742565b60008181526020818152604091829020825160e08101845281546001600160a01b03811682526001600160401b03600160a01b820481169483019490945262ffffff600160e01b8204169482019490945260ff600160f81b909404841660608201526001909101548083166080830152600160401b810490921660a0820152600160801b909104909116151560c0820152909150610a7d81611765565b60ff16606082015260c08101518015610aa35750428160a001516001600160401b031611155b15610ab757600060c0820181905260a08201525b949350505050565b600080600154610bb880610ad39190611a15565b915091509091565b610bb88261ffff16101580610af65750610bb88161ffff1610155b15610b145760405163179a054560e01b815260040160405180910390fd5b6000610b208383611742565b6000818152602081815260408083208054825160e0810184526001600160a01b03821681526001600160401b03600160a01b830481169582019590955262ffffff600160e01b8304169381019390935260ff600160f81b90910481166060840181905260018301548086166080860152600160401b810490951660a0850152600160801b90940416151560c0830152939450909190610bbe90611765565b90508160ff168160ff1614610c2a5782546001600160f81b0316600160f81b60ff838116918202929092178555604080519285168352602083019190915285917f5ceb704f098ced1532ccbbb7a668d97069d9a831ae06d82f21b2fb54e486524c910160405180910390a25b505050505050565b610c3e610bb880611a15565b81565b6001600160a01b0381166000908152600360205260408120544290610c7190603c906001600160401b0316611a71565b1192915050565b610bb88361ffff16101580610c935750610bb88261ffff1610155b15610cb15760405163179a054560e01b815260040160405180910390fd5b62ffffff8162ffffff161115610cda57604051631cf7e9c560e01b815260040160405180910390fd5b336000908152600360205260409020544290610d0190603c906001600160401b0316611a71565b1115610d205760405163d737a7d160e01b815260040160405180910390fd5b6000610d2c8484611742565b6000818152602081905260409020600181015491925090600160801b900460ff168015610d6d5750600181015442600160401b9091046001600160401b0316115b15610d8b5760405163246a5bb760e11b815260040160405180910390fd5b6000610d978686610805565b905080341015610dba5760405163cd1c886760e01b815260040160405180910390fd5b6040805160e08101825283546001600160a01b03811682526001600160401b03600160a01b82048116602084015262ffffff600160e01b8304169383019390935260ff600160f81b9091048116606083015260018501548084166080840152600160401b810490931660a0830152600160801b909204909116151560c0820152600090610e4690611765565b90506000600a8260ff1610610e5c57600a610e67565b610e67826001611a97565b84546001600160e01b0319163367ffffffffffffffff60a01b191617600160a01b426001600160401b038116918202929092176001600160e01b0316600160e01b62ffffff8b16026001600160f81b031617600160f81b60ff851602178755600187018054600160801b70ff0000000000000000ffffffffffffffff19909116909217919091179055909150610f0090610e1090611a71565b6001850180546fffffffffffffffff00000000000000001916600160401b6001600160401b0393841602179055336000908152600360205260408120805467ffffffffffffffff1916429093169290921790915560ff83169003610f745760018054906000610f6e83611a58565b91905055505b336000908152600260205260408120805491610f8f83611a58565b9091555060009050610fa2600234611ab0565b90506000610fb08234611a84565b905060007f00000000000000000000000000000000000000000000000000000000000000006001600160a01b03168360405160006040518083038185875af1925050503d806000811461101f576040519150601f19603f3d011682016040523d82523d6000602084013e611024565b606091505b5050905080611046576040516312171d8360e31b815260040160405180910390fd5b60007f00000000000000000000000000000000000000000000000000000000000000006001600160a01b03168360405160006040518083038185875af1925050503d80600081146110b3576040519150601f19603f3d011682016040523d82523d6000602084013e6110b8565b606091505b50509050806110da576040516312171d8360e31b815260040160405180910390fd5b6040805162ffffff8c16815260ff87166020820152348183015260016060820152426001600160401b03166080820152905133918b917f9210ef4445aa7c4c68933e20c0dfbb40e4cf4535cebc3da321f9b9a3ae36951a9181900360a00190a3600188015460408051348152600160401b9092046001600160401b0316602083015233918b917f3e0f62f9d57aa6ffb362d3561cee0c6a67375626c68592ba799eeb5202b5be9c91015b60405180910390a3505050505050505050505050565b610bb88361ffff161015806111b55750610bb88261ffff1610155b156111d35760405163179a054560e01b815260040160405180910390fd5b62ffffff8162ffffff1611156111fc57604051631cf7e9c560e01b815260040160405180910390fd5b33600090815260036020526040902054429061122390603c906001600160401b0316611a71565b11156112425760405163d737a7d160e01b815260040160405180910390fd5b600061124e8484611742565b6000818152602081905260409020600181015491925090600160801b900460ff16801561128f5750600181015442600160401b9091046001600160401b0316115b156112ad5760405163246a5bb760e11b815260040160405180910390fd5b60006112b9868661161a565b9050803410156112dc5760405163cd1c886760e01b815260040160405180910390fd5b6040805160e08101825283546001600160a01b03811682526001600160401b03600160a01b82048116602084015262ffffff600160e01b8304169383019390935260ff600160f81b9091048116606083015260018501548084166080840152600160401b810490931660a0830152600160801b909204909116151560c082015260009061136890611765565b90506000600a8260ff161061137e57600a611389565b611389826001611a97565b84546001600160e01b0319163367ffffffffffffffff60a01b19811691909117600160a01b426001600160401b0316908102919091176001600160e01b0316600160e01b62ffffff8b16026001600160f81b031617600160f81b60ff8581169190910291909117885560018801805470ffffffffffffffffffffffffffffffffff1916831790556000928352600360205260408320805467ffffffffffffffff19169092179091559192509083169003611453576001805490600061144d83611a58565b91905055505b33600090815260026020526040812080549161146e83611a58565b9091555060009050611481600234611ab0565b9050600061148f8234611a84565b905060007f00000000000000000000000000000000000000000000000000000000000000006001600160a01b03168360405160006040518083038185875af1925050503d80600081146114fe576040519150601f19603f3d011682016040523d82523d6000602084013e611503565b606091505b5050905080611525576040516312171d8360e31b815260040160405180910390fd5b60007f00000000000000000000000000000000000000000000000000000000000000006001600160a01b03168360405160006040518083038185875af1925050503d8060008114611592576040519150601f19603f3d011682016040523d82523d6000602084013e611597565b606091505b50509050806115b9576040516312171d8360e31b815260040160405180910390fd5b6040805162ffffff8c16815260ff871660208201523491810191909152600060608201526001600160401b034216608082015233908a907f9210ef4445aa7c4c68933e20c0dfbb40e4cf4535cebc3da321f9b9a3ae36951a9060a001611184565b6000610bb88361ffff161015806116375750610bb88261ffff1610155b156116555760405163179a054560e01b815260040160405180910390fd5b60006116618484611742565b600081815260208181526040808320815160e08101835281546001600160a01b03811682526001600160401b03600160a01b820481169583019590955262ffffff600160e01b8204169382019390935260ff600160f81b9093048316606082015260018201548085166080830152600160401b810490941660a0820152600160801b909304909116151560c08301529293506116fc90611765565b9050655af3107a400060005b8260ff168160ff161015611737576064611723609684611a15565b61172d9190611ab0565b9150600101611708565b509695505050505050565b60008261ffff16610bb88361ffff1661175b9190611a15565b61095b9190611a71565b600081608001516001600160401b031660000361178457506000919050565b600082608001516001600160401b03164261179f9190611a84565b905060006117af610e1083611ab0565b9050836060015160ff1681106117c9575060009392505050565b808460600151610ab79190611ad2565b803561ffff811681146117eb57600080fd5b919050565b6000806000806080858703121561180657600080fd5b61180f856117d9565b935061181d602086016117d9565b925061182b604086016117d9565b9150611839606086016117d9565b905092959194509250565b60018060a01b0381511682526001600160401b03602082015116602083015262ffffff604082015116604083015260ff60608201511660608301526001600160401b03608082015116608083015260a08101516118ac60a08401826001600160401b03169052565b5060c08101516118c060c084018215159052565b505050565b602080825282518282018190526000918401906040840190835b81811015611908576118f2838551611844565b6020939093019260e092909201916001016118df565b509095945050505050565b6000806040838503121561192657600080fd5b61192f836117d9565b915061193d602084016117d9565b90509250929050565b60006020828403121561195857600080fd5b81356001600160a01b038116811461095b57600080fd5b60e081016109098284611844565b60006020828403121561198f57600080fd5b5035919050565b6000806000606084860312156119ab57600080fd5b6119b4846117d9565b92506119c2602085016117d9565b9150604084013562ffffff811681146119da57600080fd5b809150509250925092565b634e487b7160e01b600052601160045260246000fd5b61ffff8181168382160190811115610909576109096119e5565b8082028115828204841417610909576109096119e5565b634e487b7160e01b600052604160045260246000fd5b634e487b7160e01b600052603260045260246000fd5b600060018201611a6a57611a6a6119e5565b5060010190565b80820180821115610909576109096119e5565b81810381811115610909576109096119e5565b60ff8181168382160190811115610909576109096119e5565b600082611acd57634e487b7160e01b600052601260045260246000fd5b500490565b60ff8281168282160390811115610909576109096119e556fea264697066735822122067741fba2a0c5f475d7fd60c9d391e407cd8983164fa3737b653d62a33f1bee264736f6c634300081c0033",
          "opcodes": "PUSH1 0xC0 PUSH1 0x40 MSTORE CALLVALUE DUP1 ISZERO PUSH2 0x10 JUMPI PUSH1 0x0 DUP1 REVERT JUMPDEST POP PUSH1 0x40 MLOAD PUSH2 0x1CA8 CODESIZE SUB DUP1 PUSH2 0x1CA8 DUP4 CODECOPY DUP2 ADD PUSH1 0x40 DUP2 SWAP1 MSTORE PUSH2 0x2F SWAP2 PUSH2 0x113 JUMP JUMPDEST PUSH1 0x1 PUSH1 0x1 PUSH1 0xA0 SHL SUB DUP3 AND PUSH2 0x8A JUMPI PUSH1 0x40 MLOAD PUSH3 0x461BCD PUSH1 0xE5 SHL DUP2 MSTORE PUSH1 0x20 PUSH1 0x4 DUP3 ADD MSTORE PUSH1 0x16 PUSH1 0x24 DUP3 ADD MSTORE PUSH32 0x496E76616C69642070726F6A6563742077616C6C657400000000000000000000 PUSH1 0x44 DUP3 ADD MSTORE PUSH1 0x64 ADD JUMPDEST PUSH1 0x40 MLOAD DUP1 SWAP2 SUB SWAP1 REVERT JUMPDEST PUSH1 0x1 PUSH1 0x1 PUSH1 0xA0 SHL SUB DUP2 AND PUSH2 0xE0 JUMPI PUSH1 0x40 MLOAD PUSH3 0x461BCD PUSH1 0xE5 SHL DUP2 MSTORE PUSH1 0x20 PUSH1 0x4 DUP3 ADD MSTORE PUSH1 0x19 PUSH1 0x24 DUP3 ADD MSTORE PUSH32 0x496E76616C696420666F756E7461696E20636F6E747261637400000000000000 PUSH1 0x44 DUP3 ADD MSTORE PUSH1 0x64 ADD PUSH2 0x81 JUMP JUMPDEST PUSH1 0x1 PUSH1 0x1 PUSH1 0xA0 SHL SUB SWAP2 DUP3 AND PUSH1 0x80 MSTORE AND PUSH1 0xA0 MSTORE PUSH2 0x146 JUMP JUMPDEST DUP1 MLOAD PUSH1 0x1 PUSH1 0x1 PUSH1 0xA0 SHL SUB DUP2 AND DUP2 EQ PUSH2 0x10E JUMPI PUSH1 0x0 DUP1 REVERT JUMPDEST SWAP2 SWAP1 POP JUMP JUMPDEST PUSH1 0x0 DUP1 PUSH1 0x40 DUP4 DUP6 SUB SLT ISZERO PUSH2 0x126 JUMPI PUSH1 0x0 DUP1 REVERT JUMPDEST PUSH2 0x12F DUP4 PUSH2 0xF7 JUMP JUMPDEST SWAP2 POP PUSH2 0x13D PUSH1 0x20 DUP5 ADD PUSH2 0xF7 JUMP JUMPDEST SWAP1 POP SWAP3 POP SWAP3 SWAP1 POP JUMP JUMPDEST PUSH1 0x80 MLOAD PUSH1 0xA0 MLOAD PUSH2 0x1B21 PUSH2 0x187 PUSH1 0x0 CODECOPY PUSH1 0x0 DUP2 DUP2 PUSH2 0x237 ADD MSTORE DUP2 DUP2 PUSH2 0x104A ADD MSTORE PUSH2 0x1529 ADD MSTORE PUSH1 0x0 DUP2 DUP2 PUSH2 0x566 ADD MSTORE DUP2 DUP2 PUSH2 0xFB6 ADD MSTORE PUSH2 0x1495 ADD MSTORE PUSH2 0x1B21 PUSH1 0x0 RETURN INVALID PUSH1 0x80 PUSH1 0x40 MSTORE PUSH1 0x4 CALLDATASIZE LT PUSH2 0x19C JUMPI PUSH1 0x0 CALLDATALOAD PUSH1 0xE0 SHR DUP1 PUSH4 0x87DA81E7 GT PUSH2 0xEC JUMPI DUP1 PUSH4 0xB572FA8B GT PUSH2 0x8A JUMPI DUP1 PUSH4 0xD333A81C GT PUSH2 0x64 JUMPI DUP1 PUSH4 0xD333A81C EQ PUSH2 0x59D JUMPI DUP1 PUSH4 0xED4127DF EQ PUSH2 0x391 JUMPI DUP1 PUSH4 0xF186BB79 EQ PUSH2 0x5B0 JUMPI DUP1 PUSH4 0xF2FAACE0 EQ PUSH2 0x5D0 JUMPI PUSH1 0x0 DUP1 REVERT JUMPDEST DUP1 PUSH4 0xB572FA8B EQ PUSH2 0x541 JUMPI DUP1 PUSH4 0xBEB08AB9 EQ PUSH2 0x554 JUMPI DUP1 PUSH4 0xCA838EB5 EQ PUSH2 0x588 JUMPI PUSH1 0x0 DUP1 REVERT JUMPDEST DUP1 PUSH4 0xA52AC171 GT PUSH2 0xC6 JUMPI DUP1 PUSH4 0xA52AC171 EQ PUSH2 0x4B9 JUMPI DUP1 PUSH4 0xA5DB5BF4 EQ PUSH2 0x4CF JUMPI DUP1 PUSH4 0xAA728DE1 EQ PUSH2 0x4E4 JUMPI DUP1 PUSH4 0xB3459E8A EQ PUSH2 0x514 JUMPI PUSH1 0x0 DUP1 REVERT JUMPDEST DUP1 PUSH4 0x87DA81E7 EQ PUSH2 0x3A7 JUMPI DUP1 PUSH4 0x8DA7F232 EQ PUSH2 0x3C9 JUMPI DUP1 PUSH4 0xA29497C2 EQ PUSH2 0x4A4 JUMPI PUSH1 0x0 DUP1 REVERT JUMPDEST DUP1 PUSH4 0x4E43603A GT PUSH2 0x159 JUMPI DUP1 PUSH4 0x583AA288 GT PUSH2 0x133 JUMPI DUP1 PUSH4 0x583AA288 EQ PUSH2 0x2FF JUMPI DUP1 PUSH4 0x5A4C91AD EQ PUSH2 0x34D JUMPI DUP1 PUSH4 0x5D6304DF EQ PUSH2 0x367 JUMPI DUP1 PUSH4 0x71BF439E EQ PUSH2 0x391 JUMPI PUSH1 0x0 DUP1 REVERT JUMPDEST DUP1 PUSH4 0x4E43603A EQ PUSH2 0x29C JUMPI DUP1 PUSH4 0x50D4E16C EQ PUSH2 0x286 JUMPI DUP1 PUSH4 0x53BA9C2F EQ PUSH2 0x2D2 JUMPI PUSH1 0x0 DUP1 REVERT JUMPDEST DUP1 PUSH4 0x16CC12D7 EQ PUSH2 0x1A1 JUMPI DUP1 PUSH4 0x1AEFA053 EQ PUSH2 0x1D7 JUMPI DUP1 PUSH4 0x342BDB8B EQ PUSH2 0x205 JUMPI DUP1 PUSH4 0x382F565C EQ PUSH2 0x225 JUMPI DUP1 PUSH4 0x3FBF2CCD EQ PUSH2 0x271 JUMPI DUP1 PUSH4 0x485D3834 EQ PUSH2 0x286 JUMPI JUMPDEST PUSH1 0x0 DUP1 REVERT JUMPDEST CALLVALUE DUP1 ISZERO PUSH2 0x1AD JUMPI PUSH1 0x0 DUP1 REVERT JUMPDEST POP PUSH2 0x1C1 PUSH2 0x1BC CALLDATASIZE PUSH1 0x4 PUSH2 0x17F0 JUMP JUMPDEST PUSH2 0x5E5 JUMP JUMPDEST PUSH1 0x40 MLOAD PUSH2 0x1CE SWAP2 SWAP1 PUSH2 0x18C5 JUMP JUMPDEST PUSH1 0x40 MLOAD DUP1 SWAP2 SUB SWAP1 RETURN JUMPDEST CALLVALUE DUP1 ISZERO PUSH2 0x1E3 JUMPI PUSH1 0x0 DUP1 REVERT JUMPDEST POP PUSH2 0x1F7 PUSH2 0x1F2 CALLDATASIZE PUSH1 0x4 PUSH2 0x1913 JUMP JUMPDEST PUSH2 0x805 JUMP JUMPDEST PUSH1 0x40 MLOAD SWAP1 DUP2 MSTORE PUSH1 0x20 ADD PUSH2 0x1CE JUMP JUMPDEST CALLVALUE DUP1 ISZERO PUSH2 0x211 JUMPI PUSH1 0x0 DUP1 REVERT JUMPDEST POP PUSH2 0x1F7 PUSH2 0x220 CALLDATASIZE PUSH1 0x4 PUSH2 0x1946 JUMP JUMPDEST PUSH2 0x90F JUMP JUMPDEST CALLVALUE DUP1 ISZERO PUSH2 0x231 JUMPI PUSH1 0x0 DUP1 REVERT JUMPDEST POP PUSH2 0x259 PUSH32 0x0 DUP2 JUMP JUMPDEST PUSH1 0x40 MLOAD PUSH1 0x1 PUSH1 0x1 PUSH1 0xA0 SHL SUB SWAP1 SWAP2 AND DUP2 MSTORE PUSH1 0x20 ADD PUSH2 0x1CE JUMP JUMPDEST CALLVALUE DUP1 ISZERO PUSH2 0x27D JUMPI PUSH1 0x0 DUP1 REVERT JUMPDEST POP PUSH2 0x1F7 PUSH1 0xA DUP2 JUMP JUMPDEST CALLVALUE DUP1 ISZERO PUSH2 0x292 JUMPI PUSH1 0x0 DUP1 REVERT JUMPDEST POP PUSH2 0x1F7 PUSH2 0xE10 DUP2 JUMP JUMPDEST CALLVALUE DUP1 ISZERO PUSH2 0x2A8 JUMPI PUSH1 0x0 DUP1 REVERT JUMPDEST POP PUSH2 0x1F7 PUSH2 0x2B7 CALLDATASIZE PUSH1 0x4 PUSH2 0x1946 JUMP JUMPDEST PUSH1 0x1 PUSH1 0x1 PUSH1 0xA0 SHL SUB AND PUSH1 0x0 SWAP1 DUP2 MSTORE PUSH1 0x2 PUSH1 0x20 MSTORE PUSH1 0x40 SWAP1 KECCAK256 SLOAD SWAP1 JUMP JUMPDEST CALLVALUE DUP1 ISZERO PUSH2 0x2DE JUMPI PUSH1 0x0 DUP1 REVERT JUMPDEST POP PUSH2 0x2F2 PUSH2 0x2ED CALLDATASIZE PUSH1 0x4 PUSH2 0x1913 JUMP JUMPDEST PUSH2 0x962 JUMP JUMPDEST PUSH1 0x40 MLOAD PUSH2 0x1CE SWAP2 SWAP1 PUSH2 0x196F JUMP JUMPDEST CALLVALUE DUP1 ISZERO PUSH2 0x30B JUMPI PUSH1 0x0 DUP1 REVERT JUMPDEST POP PUSH2 0x335 PUSH2 0x31A CALLDATASIZE PUSH1 0x4 PUSH2 0x1946 JUMP JUMPDEST PUSH1 0x3 PUSH1 0x20 MSTORE PUSH1 0x0 SWAP1 DUP2 MSTORE PUSH1 0x40 SWAP1 KECCAK256 SLOAD PUSH1 0x1 PUSH1 0x1 PUSH1 0x40 SHL SUB AND DUP2 JUMP JUMPDEST PUSH1 0x40 MLOAD PUSH1 0x1 PUSH1 0x1 PUSH1 0x40 SHL SUB SWAP1 SWAP2 AND DUP2 MSTORE PUSH1 0x20 ADD PUSH2 0x1CE JUMP JUMPDEST CALLVALUE DUP1 ISZERO PUSH2 0x359 JUMPI PUSH1 0x0 DUP1 REVERT JUMPDEST POP PUSH2 0x1F7 PUSH6 0x5AF3107A4000 DUP2 JUMP JUMPDEST CALLVALUE DUP1 ISZERO PUSH2 0x373 JUMPI PUSH1 0x0 DUP1 REVERT JUMPDEST POP PUSH2 0x37C PUSH2 0xABF JUMP JUMPDEST PUSH1 0x40 DUP1 MLOAD SWAP3 DUP4 MSTORE PUSH1 0x20 DUP4 ADD SWAP2 SWAP1 SWAP2 MSTORE ADD PUSH2 0x1CE JUMP JUMPDEST CALLVALUE DUP1 ISZERO PUSH2 0x39D JUMPI PUSH1 0x0 DUP1 REVERT JUMPDEST POP PUSH2 0x1F7 PUSH2 0xBB8 DUP2 JUMP JUMPDEST CALLVALUE DUP1 ISZERO PUSH2 0x3B3 JUMPI PUSH1 0x0 DUP1 REVERT JUMPDEST POP PUSH2 0x3C7 PUSH2 0x3C2 CALLDATASIZE PUSH1 0x4 PUSH2 0x1913 JUMP JUMPDEST PUSH2 0xADB JUMP JUMPDEST STOP JUMPDEST CALLVALUE DUP1 ISZERO PUSH2 0x3D5 JUMPI PUSH1 0x0 DUP1 REVERT JUMPDEST POP PUSH2 0x44C PUSH2 0x3E4 CALLDATASIZE PUSH1 0x4 PUSH2 0x197D JUMP JUMPDEST PUSH1 0x0 PUSH1 0x20 DUP2 SWAP1 MSTORE SWAP1 DUP2 MSTORE PUSH1 0x40 SWAP1 KECCAK256 DUP1 SLOAD PUSH1 0x1 SWAP1 SWAP2 ADD SLOAD PUSH1 0x1 PUSH1 0x1 PUSH1 0xA0 SHL SUB DUP3 AND SWAP2 PUSH1 0x1 PUSH1 0x1 PUSH1 0x40 SHL SUB PUSH1 0x1 PUSH1 0xA0 SHL DUP3 DIV DUP2 AND SWAP3 PUSH3 0xFFFFFF PUSH1 0x1 PUSH1 0xE0 SHL DUP5 DIV AND SWAP3 PUSH1 0xFF PUSH1 0x1 PUSH1 0xF8 SHL SWAP1 SWAP2 DIV DUP2 AND SWAP3 DUP3 DUP2 AND SWAP3 PUSH1 0x1 PUSH1 0x40 SHL DUP2 DIV SWAP1 SWAP2 AND SWAP2 PUSH1 0x1 PUSH1 0x80 SHL SWAP1 SWAP2 DIV AND DUP8 JUMP JUMPDEST PUSH1 0x40 DUP1 MLOAD PUSH1 0x1 PUSH1 0x1 PUSH1 0xA0 SHL SUB SWAP1 SWAP9 AND DUP9 MSTORE PUSH1 0x1 PUSH1 0x1 PUSH1 0x40 SHL SUB SWAP7 DUP8 AND PUSH1 0x20 DUP10 ADD MSTORE PUSH3 0xFFFFFF SWAP1 SWAP6 AND SWAP5 DUP8 ADD SWAP5 SWAP1 SWAP5 MSTORE PUSH1 0xFF SWAP1 SWAP3 AND PUSH1 0x60 DUP7 ADD MSTORE DUP4 AND PUSH1 0x80 DUP6 ADD MSTORE SWAP2 SWAP1 SWAP2 AND PUSH1 0xA0 DUP4 ADD MSTORE ISZERO ISZERO PUSH1 0xC0 DUP3 ADD MSTORE PUSH1 0xE0 ADD PUSH2 0x1CE JUMP JUMPDEST CALLVALUE DUP1 ISZERO PUSH2 0x4B0 JUMPI PUSH1 0x0 DUP1 REVERT JUMPDEST POP PUSH2 0x1F7 PUSH2 0xC32 JUMP JUMPDEST CALLVALUE DUP1 ISZERO PUSH2 0x4C5 JUMPI PUSH1 0x0 DUP1 REVERT JUMPDEST POP PUSH2 0x1F7 PUSH1 0x1 SLOAD DUP2 JUMP JUMPDEST CALLVALUE DUP1 ISZERO PUSH2 0x4DB JUMPI PUSH1 0x0 DUP1 REVERT JUMPDEST POP PUSH2 0x1F7 PUSH1 0x96 DUP2 JUMP JUMPDEST CALLVALUE DUP1 ISZERO PUSH2 0x4F0 JUMPI PUSH1 0x0 DUP1 REVERT JUMPDEST POP PUSH2 0x504 PUSH2 0x4FF CALLDATASIZE PUSH1 0x4 PUSH2 0x1946 JUMP JUMPDEST PUSH2 0xC41 JUMP JUMPDEST PUSH1 0x40 MLOAD SWAP1 ISZERO ISZERO DUP2 MSTORE PUSH1 0x20 ADD PUSH2 0x1CE JUMP JUMPDEST CALLVALUE DUP1 ISZERO PUSH2 0x520 JUMPI PUSH1 0x0 DUP1 REVERT JUMPDEST POP PUSH2 0x1F7 PUSH2 0x52F CALLDATASIZE PUSH1 0x4 PUSH2 0x1946 JUMP JUMPDEST PUSH1 0x2 PUSH1 0x20 MSTORE PUSH1 0x0 SWAP1 DUP2 MSTORE PUSH1 0x40 SWAP1 KECCAK256 SLOAD DUP2 JUMP JUMPDEST PUSH2 0x3C7 PUSH2 0x54F CALLDATASIZE PUSH1 0x4 PUSH2 0x1996 JUMP JUMPDEST PUSH2 0xC78 JUMP JUMPDEST CALLVALUE DUP1 ISZERO PUSH2 0x560 JUMPI PUSH1 0x0 DUP1 REVERT JUMPDEST POP PUSH2 0x259 PUSH32 0x0 DUP2 JUMP JUMPDEST CALLVALUE DUP1 ISZERO PUSH2 0x594 JUMPI PUSH1 0x0 DUP1 REVERT JUMPDEST POP PUSH2 0x1F7 PUSH1 0x3C DUP2 JUMP JUMPDEST PUSH2 0x3C7 PUSH2 0x5AB CALLDATASIZE PUSH1 0x4 PUSH2 0x1996 JUMP JUMPDEST PUSH2 0x119A JUMP JUMPDEST CALLVALUE DUP1 ISZERO PUSH2 0x5BC JUMPI PUSH1 0x0 DUP1 REVERT JUMPDEST POP PUSH2 0x1F7 PUSH2 0x5CB CALLDATASIZE PUSH1 0x4 PUSH2 0x1913 JUMP JUMPDEST PUSH2 0x161A JUMP JUMPDEST CALLVALUE DUP1 ISZERO PUSH2 0x5DC JUMPI PUSH1 0x0 DUP1 REVERT JUMPDEST POP PUSH2 0x1F7 PUSH1 0x32 DUP2 JUMP JUMPDEST PUSH1 0x60 PUSH2 0xBB8 PUSH2 0x5F4 DUP5 DUP8 PUSH2 0x19FB JUMP JUMPDEST PUSH2 0xFFFF AND GT DUP1 PUSH2 0x612 JUMPI POP PUSH2 0xBB8 PUSH2 0x60C DUP4 DUP7 PUSH2 0x19FB JUMP JUMPDEST PUSH2 0xFFFF AND GT JUMPDEST ISZERO PUSH2 0x630 JUMPI PUSH1 0x40 MLOAD PUSH4 0x179A0545 PUSH1 0xE0 SHL DUP2 MSTORE PUSH1 0x4 ADD PUSH1 0x40 MLOAD DUP1 SWAP2 SUB SWAP1 REVERT JUMPDEST PUSH1 0x0 PUSH2 0x643 PUSH2 0xFFFF DUP1 DUP6 AND SWAP1 DUP7 AND PUSH2 0x1A15 JUMP JUMPDEST SWAP1 POP PUSH1 0x0 DUP2 PUSH1 0x1 PUSH1 0x1 PUSH1 0x40 SHL SUB DUP2 GT ISZERO PUSH2 0x65F JUMPI PUSH2 0x65F PUSH2 0x1A2C JUMP JUMPDEST PUSH1 0x40 MLOAD SWAP1 DUP1 DUP3 MSTORE DUP1 PUSH1 0x20 MUL PUSH1 0x20 ADD DUP3 ADD PUSH1 0x40 MSTORE DUP1 ISZERO PUSH2 0x6C6 JUMPI DUP2 PUSH1 0x20 ADD JUMPDEST PUSH1 0x40 DUP1 MLOAD PUSH1 0xE0 DUP2 ADD DUP3 MSTORE PUSH1 0x0 DUP1 DUP3 MSTORE PUSH1 0x20 DUP1 DUP4 ADD DUP3 SWAP1 MSTORE SWAP3 DUP3 ADD DUP2 SWAP1 MSTORE PUSH1 0x60 DUP3 ADD DUP2 SWAP1 MSTORE PUSH1 0x80 DUP3 ADD DUP2 SWAP1 MSTORE PUSH1 0xA0 DUP3 ADD DUP2 SWAP1 MSTORE PUSH1 0xC0 DUP3 ADD MSTORE DUP3 MSTORE PUSH1 0x0 NOT SWAP1 SWAP3 ADD SWAP2 ADD DUP2 PUSH2 0x67D JUMPI SWAP1 POP JUMPDEST POP SWAP1 POP PUSH1 0x0 DUP7 JUMPDEST PUSH2 0x6D7 DUP7 DUP10 PUSH2 0x19FB JUMP JUMPDEST PUSH2 0xFFFF AND DUP2 PUSH2 0xFFFF AND LT ISZERO PUSH2 0x7F8 JUMPI DUP9 JUMPDEST PUSH2 0x6F2 DUP9 DUP12 PUSH2 0x19FB JUMP JUMPDEST PUSH2 0xFFFF AND DUP2 PUSH2 0xFFFF AND LT ISZERO PUSH2 0x7EF JUMPI PUSH1 0x0 PUSH2 0x70D DUP3 DUP5 PUSH2 0x1742 JUMP JUMPDEST PUSH1 0x0 DUP2 DUP2 MSTORE PUSH1 0x20 DUP2 DUP2 MSTORE PUSH1 0x40 SWAP2 DUP3 SWAP1 KECCAK256 DUP3 MLOAD PUSH1 0xE0 DUP2 ADD DUP5 MSTORE DUP2 SLOAD PUSH1 0x1 PUSH1 0x1 PUSH1 0xA0 SHL SUB DUP2 AND DUP3 MSTORE PUSH1 0x1 PUSH1 0x1 PUSH1 0x40 SHL SUB PUSH1 0x1 PUSH1 0xA0 SHL DUP3 DIV DUP2 AND SWAP5 DUP4 ADD SWAP5 SWAP1 SWAP5 MSTORE PUSH3 0xFFFFFF PUSH1 0x1 PUSH1 0xE0 SHL DUP3 DIV AND SWAP5 DUP3 ADD SWAP5 SWAP1 SWAP5 MSTORE PUSH1 0xFF PUSH1 0x1 PUSH1 0xF8 SHL SWAP1 SWAP5 DIV DUP5 AND PUSH1 0x60 DUP3 ADD MSTORE PUSH1 0x1 SWAP1 SWAP2 ADD SLOAD DUP1 DUP4 AND PUSH1 0x80 DUP4 ADD MSTORE PUSH1 0x1 PUSH1 0x40 SHL DUP2 DIV SWAP1 SWAP3 AND PUSH1 0xA0 DUP3 ADD MSTORE PUSH1 0x1 PUSH1 0x80 SHL SWAP1 SWAP2 DIV SWAP1 SWAP2 AND ISZERO ISZERO PUSH1 0xC0 DUP3 ADD MSTORE SWAP1 SWAP2 POP PUSH2 0x7AA DUP2 PUSH2 0x1765 JUMP JUMPDEST PUSH1 0xFF AND PUSH1 0x60 DUP3 ADD MSTORE DUP6 MLOAD DUP2 SWAP1 DUP8 SWAP1 DUP8 SWAP1 DUP2 LT PUSH2 0x7C8 JUMPI PUSH2 0x7C8 PUSH2 0x1A42 JUMP JUMPDEST PUSH1 0x20 MUL PUSH1 0x20 ADD ADD DUP2 SWAP1 MSTORE POP DUP5 DUP1 PUSH2 0x7DE SWAP1 PUSH2 0x1A58 JUMP JUMPDEST SWAP6 POP POP PUSH1 0x1 SWAP1 SWAP3 ADD SWAP2 POP PUSH2 0x6E8 SWAP1 POP JUMP JUMPDEST POP PUSH1 0x1 ADD PUSH2 0x6CD JUMP JUMPDEST POP SWAP1 SWAP8 SWAP7 POP POP POP POP POP POP POP JUMP JUMPDEST PUSH1 0x0 PUSH2 0xBB8 DUP4 PUSH2 0xFFFF AND LT ISZERO DUP1 PUSH2 0x822 JUMPI POP PUSH2 0xBB8 DUP3 PUSH2 0xFFFF AND LT ISZERO JUMPDEST ISZERO PUSH2 0x840 JUMPI PUSH1 0x40 MLOAD PUSH4 0x179A0545 PUSH1 0xE0 SHL DUP2 MSTORE PUSH1 0x4 ADD PUSH1 0x40 MLOAD DUP1 SWAP2 SUB SWAP1 REVERT JUMPDEST PUSH1 0x0 PUSH2 0x84C DUP5 DUP5 PUSH2 0x1742 JUMP JUMPDEST PUSH1 0x0 DUP2 DUP2 MSTORE PUSH1 0x20 DUP2 DUP2 MSTORE PUSH1 0x40 DUP1 DUP4 KECCAK256 DUP2 MLOAD PUSH1 0xE0 DUP2 ADD DUP4 MSTORE DUP2 SLOAD PUSH1 0x1 PUSH1 0x1 PUSH1 0xA0 SHL SUB DUP2 AND DUP3 MSTORE PUSH1 0x1 PUSH1 0x1 PUSH1 0x40 SHL SUB PUSH1 0x1 PUSH1 0xA0 SHL DUP3 DIV DUP2 AND SWAP6 DUP4 ADD SWAP6 SWAP1 SWAP6 MSTORE PUSH3 0xFFFFFF PUSH1 0x1 PUSH1 0xE0 SHL DUP3 DIV AND SWAP4 DUP3 ADD SWAP4 SWAP1 SWAP4 MSTORE PUSH1 0xFF PUSH1 0x1 PUSH1 0xF8 SHL SWAP1 SWAP4 DIV DUP4 AND PUSH1 0x60 DUP3 ADD MSTORE PUSH1 0x1 DUP3 ADD SLOAD DUP1 DUP6 AND PUSH1 0x80 DUP4 ADD MSTORE PUSH1 0x1 PUSH1 0x40 SHL DUP2 DIV SWAP1 SWAP5 AND PUSH1 0xA0 DUP3 ADD MSTORE PUSH1 0x1 PUSH1 0x80 SHL SWAP1 SWAP4 DIV SWAP1 SWAP2 AND ISZERO ISZERO PUSH1 0xC0 DUP4 ADD MSTORE SWAP3 SWAP4 POP PUSH2 0x8E7 SWAP1 PUSH2 0x1765 JUMP JUMPDEST SWAP1 POP PUSH1 0x0 PUSH2 0x8F5 DUP8 DUP8 PUSH2 0x161A JUMP JUMPDEST SWAP1 POP PUSH2 0x902 PUSH1 0x32 DUP3 PUSH2 0x1A15 JUMP JUMPDEST SWAP5 POP POP POP POP POP JUMPDEST SWAP3 SWAP2 POP POP JUMP JUMPDEST PUSH1 0x1 PUSH1 0x1 PUSH1 0xA0 SHL SUB DUP2 AND PUSH1 0x0 SWAP1 DUP2 MSTORE PUSH1 0x3 PUSH1 0x20 MSTORE PUSH1 0x40 DUP2 KECCAK256 SLOAD DUP2 SWAP1 PUSH2 0x93F SWAP1 PUSH1 0x3C SWAP1 PUSH1 0x1 PUSH1 0x1 PUSH1 0x40 SHL SUB AND PUSH2 0x1A71 JUMP JUMPDEST SWAP1 POP TIMESTAMP DUP2 GT PUSH2 0x951 JUMPI POP PUSH1 0x0 SWAP3 SWAP2 POP POP JUMP JUMPDEST PUSH2 0x95B TIMESTAMP DUP3 PUSH2 0x1A84 JUMP JUMPDEST SWAP4 SWAP3 POP POP POP JUMP JUMPDEST PUSH1 0x40 DUP1 MLOAD PUSH1 0xE0 DUP2 ADD DUP3 MSTORE PUSH1 0x0 DUP1 DUP3 MSTORE PUSH1 0x20 DUP3 ADD DUP2 SWAP1 MSTORE SWAP2 DUP2 ADD DUP3 SWAP1 MSTORE PUSH1 0x60 DUP2 ADD DUP3 SWAP1 MSTORE PUSH1 0x80 DUP2 ADD DUP3 SWAP1 MSTORE PUSH1 0xA0 DUP2 ADD DUP3 SWAP1 MSTORE PUSH1 0xC0 DUP2 ADD SWAP2 SWAP1 SWAP2 MSTORE PUSH2 0xBB8 DUP4 PUSH2 0xFFFF AND LT ISZERO DUP1 PUSH2 0x9B6 JUMPI POP PUSH2 0xBB8 DUP3 PUSH2 0xFFFF AND LT ISZERO JUMPDEST ISZERO PUSH2 0x9D4 JUMPI PUSH1 0x40 MLOAD PUSH4 0x179A0545 PUSH1 0xE0 SHL DUP2 MSTORE PUSH1 0x4 ADD PUSH1 0x40 MLOAD DUP1 SWAP2 SUB SWAP1 REVERT JUMPDEST PUSH1 0x0 PUSH2 0x9E0 DUP5 DUP5 PUSH2 0x1742 JUMP JUMPDEST PUSH1 0x0 DUP2 DUP2 MSTORE PUSH1 0x20 DUP2 DUP2 MSTORE PUSH1 0x40 SWAP2 DUP3 SWAP1 KECCAK256 DUP3 MLOAD PUSH1 0xE0 DUP2 ADD DUP5 MSTORE DUP2 SLOAD PUSH1 0x1 PUSH1 0x1 PUSH1 0xA0 SHL SUB DUP2 AND DUP3 MSTORE PUSH1 0x1 PUSH1 0x1 PUSH1 0x40 SHL SUB PUSH1 0x1 PUSH1 0xA0 SHL DUP3 DIV DUP2 AND SWAP5 DUP4 ADD SWAP5 SWAP1 SWAP5 MSTORE PUSH3 0xFFFFFF PUSH1 0x1 PUSH1 0xE0 SHL DUP3 DIV AND SWAP5 DUP3 ADD SWAP5 SWAP1 SWAP5 MSTORE PUSH1 0xFF PUSH1 0x1 PUSH1 0xF8 SHL SWAP1 SWAP5 DIV DUP5 AND PUSH1 0x60 DUP3 ADD MSTORE PUSH1 0x1 SWAP1 SWAP2 ADD SLOAD DUP1 DUP4 AND PUSH1 0x80 DUP4 ADD MSTORE PUSH1 0x1 PUSH1 0x40 SHL DUP2 DIV SWAP1 SWAP3 AND PUSH1 0xA0 DUP3 ADD MSTORE PUSH1 0x1 PUSH1 0x80 SHL SWAP1 SWAP2 DIV SWAP1 SWAP2 AND ISZERO ISZERO PUSH1 0xC0 DUP3 ADD MSTORE SWAP1 SWAP2 POP PUSH2 0xA7D DUP2 PUSH2 0x1765 JUMP JUMPDEST PUSH1 0xFF AND PUSH1 0x60 DUP3 ADD MSTORE PUSH1 0xC0 DUP2 ADD MLOAD DUP1 ISZERO PUSH2 0xAA3 JUMPI POP TIMESTAMP DUP2 PUSH1 0xA0 ADD MLOAD PUSH1 0x1 PUSH1 0x1 PUSH1 0x40 SHL SUB AND GT ISZERO JUMPDEST ISZERO PUSH2 0xAB7 JUMPI PUSH1 0x0 PUSH1 0xC0 DUP3 ADD DUP2 SWAP1 MSTORE PUSH1 0xA0 DUP3 ADD MSTORE JUMPDEST SWAP5 SWAP4 POP POP POP POP JUMP JUMPDEST PUSH1 0x0 DUP1 PUSH1 0x1 SLOAD PUSH2 0xBB8 DUP1 PUSH2 0xAD3 SWAP2 SWAP1 PUSH2 0x1A15 JUMP JUMPDEST SWAP2 POP SWAP2 POP SWAP1 SWAP2 JUMP JUMPDEST PUSH2 0xBB8 DUP3 PUSH2 0xFFFF AND LT ISZERO DUP1 PUSH2 0xAF6 JUMPI POP PUSH2 0xBB8 DUP2 PUSH2 0xFFFF AND LT ISZERO JUMPDEST ISZERO PUSH2 0xB14 JUMPI PUSH1 0x40 MLOAD PUSH4 0x179A0545 PUSH1 0xE0 SHL DUP2 MSTORE PUSH1 0x4 ADD PUSH1 0x40 MLOAD DUP1 SWAP2 SUB SWAP1 REVERT JUMPDEST PUSH1 0x0 PUSH2 0xB20 DUP4 DUP4 PUSH2 0x1742 JUMP JUMPDEST PUSH1 0x0 DUP2 DUP2 MSTORE PUSH1 0x20 DUP2 DUP2 MSTORE PUSH1 0x40 DUP1 DUP4 KECCAK256 DUP1 SLOAD DUP3 MLOAD PUSH1 0xE0 DUP2 ADD DUP5 MSTORE PUSH1 0x1 PUSH1 0x1 PUSH1 0xA0 SHL SUB DUP3 AND DUP2 MSTORE PUSH1 0x1 PUSH1 0x1 PUSH1 0x40 SHL SUB PUSH1 0x1 PUSH1 0xA0 SHL DUP4 DIV DUP2 AND SWAP6 DUP3 ADD SWAP6 SWAP1 SWAP6 MSTORE PUSH3 0xFFFFFF PUSH1 0x1 PUSH1 0xE0 SHL DUP4 DIV AND SWAP4 DUP2 ADD SWAP4 SWAP1 SWAP4 MSTORE PUSH1 0xFF PUSH1 0x1 PUSH1 0xF8 SHL SWAP1 SWAP2 DIV DUP2 AND PUSH1 0x60 DUP5 ADD DUP2 SWAP1 MSTORE PUSH1 0x1 DUP4 ADD SLOAD DUP1 DUP7 AND PUSH1 0x80 DUP7 ADD MSTORE PUSH1 0x1 PUSH1 0x40 SHL DUP2 DIV SWAP1 SWAP6 AND PUSH1 0xA0 DUP6 ADD MSTORE PUSH1 0x1 PUSH1 0x80 SHL SWAP1 SWAP5 DIV AND ISZERO ISZERO PUSH1 0xC0 DUP4 ADD MSTORE SWAP4 SWAP5 POP SWAP1 SWAP2 SWAP1 PUSH2 0xBBE SWAP1 PUSH2 0x1765 JUMP JUMPDEST SWAP1 POP DUP2 PUSH1 0xFF AND DUP2 PUSH1 0xFF AND EQ PUSH2 0xC2A JUMPI DUP3 SLOAD PUSH1 0x1 PUSH1 0x1 PUSH1 0xF8 SHL SUB AND PUSH1 0x1 PUSH1 0xF8 SHL PUSH1 0xFF DUP4 DUP2 AND SWAP2 DUP3 MUL SWAP3 SWAP1 SWAP3 OR DUP6 SSTORE PUSH1 0x40 DUP1 MLOAD SWAP3 DUP6 AND DUP4 MSTORE PUSH1 0x20 DUP4 ADD SWAP2 SWAP1 SWAP2 MSTORE DUP6 SWAP2 PUSH32 0x5CEB704F098CED1532CCBBB7A668D97069D9A831AE06D82F21B2FB54E486524C SWAP2 ADD PUSH1 0x40 MLOAD DUP1 SWAP2 SUB SWAP1 LOG2 JUMPDEST POP POP POP POP POP POP JUMP JUMPDEST PUSH2 0xC3E PUSH2 0xBB8 DUP1 PUSH2 0x1A15 JUMP JUMPDEST DUP2 JUMP JUMPDEST PUSH1 0x1 PUSH1 0x1 PUSH1 0xA0 SHL SUB DUP2 AND PUSH1 0x0 SWAP1 DUP2 MSTORE PUSH1 0x3 PUSH1 0x20 MSTORE PUSH1 0x40 DUP2 KECCAK256 SLOAD TIMESTAMP SWAP1 PUSH2 0xC71 SWAP1 PUSH1 0x3C SWAP1 PUSH1 0x1 PUSH1 0x1 PUSH1 0x40 SHL SUB AND PUSH2 0x1A71 JUMP JUMPDEST GT SWAP3 SWAP2 POP POP JUMP JUMPDEST PUSH2 0xBB8 DUP4 PUSH2 0xFFFF AND LT ISZERO DUP1 PUSH2 0xC93 JUMPI POP PUSH2 0xBB8 DUP3 PUSH2 0xFFFF AND LT ISZERO JUMPDEST ISZERO PUSH2 0xCB1 JUMPI PUSH1 0x40 MLOAD PUSH4 0x179A0545 PUSH1 0xE0 SHL DUP2 MSTORE PUSH1 0x4 ADD PUSH1 0x40 MLOAD DUP1 SWAP2 SUB SWAP1 REVERT JUMPDEST PUSH3 0xFFFFFF DUP2 PUSH3 0xFFFFFF AND GT ISZERO PUSH2 0xCDA JUMPI PUSH1 0x40 MLOAD PUSH4 0x1CF7E9C5 PUSH1 0xE0 SHL DUP2 MSTORE PUSH1 0x4 ADD PUSH1 0x40 MLOAD DUP1 SWAP2 SUB SWAP1 REVERT JUMPDEST CALLER PUSH1 0x0 SWAP1 DUP2 MSTORE PUSH1 0x3 PUSH1 0x20 MSTORE PUSH1 0x40 SWAP1 KECCAK256 SLOAD TIMESTAMP SWAP1 PUSH2 0xD01 SWAP1 PUSH1 0x3C SWAP1 PUSH1 0x1 PUSH1 0x1 PUSH1 0x40 SHL SUB AND PUSH2 0x1A71 JUMP JUMPDEST GT ISZERO PUSH2 0xD20 JUMPI PUSH1 0x40 MLOAD PUSH4 0xD737A7D1 PUSH1 0xE0 SHL DUP2 MSTORE PUSH1 0x4 ADD PUSH1 0x40 MLOAD DUP1 SWAP2 SUB SWAP1 REVERT JUMPDEST PUSH1 0x0 PUSH2 0xD2C DUP5 DUP5 PUSH2 0x1742 JUMP JUMPDEST PUSH1 0x0 DUP2 DUP2 MSTORE PUSH1 0x20 DUP2 SWAP1 MSTORE PUSH1 0x40 SWAP1 KECCAK256 PUSH1 0x1 DUP2 ADD SLOAD SWAP2 SWAP3 POP SWAP1 PUSH1 0x1 PUSH1 0x80 SHL SWAP1 DIV PUSH1 0xFF AND DUP1 ISZERO PUSH2 0xD6D JUMPI POP PUSH1 0x1 DUP2 ADD SLOAD TIMESTAMP PUSH1 0x1 PUSH1 0x40 SHL SWAP1 SWAP2 DIV PUSH1 0x1 PUSH1 0x1 PUSH1 0x40 SHL SUB AND GT JUMPDEST ISZERO PUSH2 0xD8B JUMPI PUSH1 0x40 MLOAD PUSH4 0x246A5BB7 PUSH1 0xE1 SHL DUP2 MSTORE PUSH1 0x4 ADD PUSH1 0x40 MLOAD DUP1 SWAP2 SUB SWAP1 REVERT JUMPDEST PUSH1 0x0 PUSH2 0xD97 DUP7 DUP7 PUSH2 0x805 JUMP JUMPDEST SWAP1 POP DUP1 CALLVALUE LT ISZERO PUSH2 0xDBA JUMPI PUSH1 0x40 MLOAD PUSH4 0xCD1C8867 PUSH1 0xE0 SHL DUP2 MSTORE PUSH1 0x4 ADD PUSH1 0x40 MLOAD DUP1 SWAP2 SUB SWAP1 REVERT JUMPDEST PUSH1 0x40 DUP1 MLOAD PUSH1 0xE0 DUP2 ADD DUP3 MSTORE DUP4 SLOAD PUSH1 0x1 PUSH1 0x1 PUSH1 0xA0 SHL SUB DUP2 AND DUP3 MSTORE PUSH1 0x1 PUSH1 0x1 PUSH1 0x40 SHL SUB PUSH1 0x1 PUSH1 0xA0 SHL DUP3 DIV DUP2 AND PUSH1 0x20 DUP5 ADD MSTORE PUSH3 0xFFFFFF PUSH1 0x1 PUSH1 0xE0 SHL DUP4 DIV AND SWAP4 DUP4 ADD SWAP4 SWAP1 SWAP4 MSTORE PUSH1 0xFF PUSH1 0x1 PUSH1 0xF8 SHL SWAP1 SWAP2 DIV DUP2 AND PUSH1 0x60 DUP4 ADD MSTORE PUSH1 0x1 DUP6 ADD SLOAD DUP1 DUP5 AND PUSH1 0x80 DUP5 ADD MSTORE PUSH1 0x1 PUSH1 0x40 SHL DUP2 DIV SWAP1 SWAP4 AND PUSH1 0xA0 DUP4 ADD MSTORE PUSH1 0x1 PUSH1 0x80 SHL SWAP1 SWAP3 DIV SWAP1 SWAP2 AND ISZERO ISZERO PUSH1 0xC0 DUP3 ADD MSTORE PUSH1 0x0 SWAP1 PUSH2 0xE46 SWAP1 PUSH2 0x1765 JUMP JUMPDEST SWAP1 POP PUSH1 0x0 PUSH1 0xA DUP3 PUSH1 0xFF AND LT PUSH2 0xE5C JUMPI PUSH1 0xA PUSH2 0xE67 JUMP JUMPDEST PUSH2 0xE67 DUP3 PUSH1 0x1 PUSH2 0x1A97 JUMP JUMPDEST DUP5 SLOAD PUSH1 0x1 PUSH1 0x1 PUSH1 0xE0 SHL SUB NOT AND CALLER PUSH8 0xFFFFFFFFFFFFFFFF PUSH1 0xA0 SHL NOT AND OR PUSH1 0x1 PUSH1 0xA0 SHL TIMESTAMP PUSH1 0x1 PUSH1 0x1 PUSH1 0x40 SHL SUB DUP2 AND SWAP2 DUP3 MUL SWAP3 SWAP1 SWAP3 OR PUSH1 0x1 PUSH1 0x1 PUSH1 0xE0 SHL SUB AND PUSH1 0x1 PUSH1 0xE0 SHL PUSH3 0xFFFFFF DUP12 AND MUL PUSH1 0x1 PUSH1 0x1 PUSH1 0xF8 SHL SUB AND OR PUSH1 0x1 PUSH1 0xF8 SHL PUSH1 0xFF DUP6 AND MUL OR DUP8 SSTORE PUSH1 0x1 DUP8 ADD DUP1 SLOAD PUSH1 0x1 PUSH1 0x80 SHL PUSH17 0xFF0000000000000000FFFFFFFFFFFFFFFF NOT SWAP1 SWAP2 AND SWAP1 SWAP3 OR SWAP2 SWAP1 SWAP2 OR SWAP1 SSTORE SWAP1 SWAP2 POP PUSH2 0xF00 SWAP1 PUSH2 0xE10 SWAP1 PUSH2 0x1A71 JUMP JUMPDEST PUSH1 0x1 DUP6 ADD DUP1 SLOAD PUSH16 0xFFFFFFFFFFFFFFFF0000000000000000 NOT AND PUSH1 0x1 PUSH1 0x40 SHL PUSH1 0x1 PUSH1 0x1 PUSH1 0x40 SHL SUB SWAP4 DUP5 AND MUL OR SWAP1 SSTORE CALLER PUSH1 0x0 SWAP1 DUP2 MSTORE PUSH1 0x3 PUSH1 0x20 MSTORE PUSH1 0x40 DUP2 KECCAK256 DUP1 SLOAD PUSH8 0xFFFFFFFFFFFFFFFF NOT AND TIMESTAMP SWAP1 SWAP4 AND SWAP3 SWAP1 SWAP3 OR SWAP1 SWAP2 SSTORE PUSH1 0xFF DUP4 AND SWAP1 SUB PUSH2 0xF74 JUMPI PUSH1 0x1 DUP1 SLOAD SWAP1 PUSH1 0x0 PUSH2 0xF6E DUP4 PUSH2 0x1A58 JUMP JUMPDEST SWAP2 SWAP1 POP SSTORE POP JUMPDEST CALLER PUSH1 0x0 SWAP1 DUP2 MSTORE PUSH1 0x2 PUSH1 0x20 MSTORE PUSH1 0x40 DUP2 KECCAK256 DUP1 SLOAD SWAP2 PUSH2 0xF8F DUP4 PUSH2 0x1A58 JUMP JUMPDEST SWAP1 SWAP2 SSTORE POP PUSH1 0x0 SWAP1 POP PUSH2 0xFA2 PUSH1 0x2 CALLVALUE PUSH2 0x1AB0 JUMP JUMPDEST SWAP1 POP PUSH1 0x0 PUSH2 0xFB0 DUP3 CALLVALUE PUSH2 0x1A84 JUMP JUMPDEST SWAP1 POP PUSH1 0x0 PUSH32 0x0 PUSH1 0x1 PUSH1 0x1 PUSH1 0xA0 SHL SUB AND DUP4 PUSH1 0x40 MLOAD PUSH1 0x0 PUSH1 0x40 MLOAD DUP1 DUP4 SUB DUP2 DUP6 DUP8 GAS CALL SWAP3 POP POP POP RETURNDATASIZE DUP1 PUSH1 0x0 DUP2 EQ PUSH2 0x101F JUMPI PUSH1 0x40 MLOAD SWAP2 POP PUSH1 0x1F NOT PUSH1 0x3F RETURNDATASIZE ADD AND DUP3 ADD PUSH1 0x40 MSTORE RETURNDATASIZE DUP3 MSTORE RETURNDATASIZE PUSH1 0x0 PUSH1 0x20 DUP5 ADD RETURNDATACOPY PUSH2 0x1024 JUMP JUMPDEST PUSH1 0x60 SWAP2 POP JUMPDEST POP POP SWAP1 POP DUP1 PUSH2 0x1046 JUMPI PUSH1 0x40 MLOAD PUSH4 0x12171D83 PUSH1 0xE3 SHL DUP2 MSTORE PUSH1 0x4 ADD PUSH1 0x40 MLOAD DUP1 SWAP2 SUB SWAP1 REVERT JUMPDEST PUSH1 0x0 PUSH32 0x0 PUSH1 0x1 PUSH1 0x1 PUSH1 0xA0 SHL SUB AND DUP4 PUSH1 0x40 MLOAD PUSH1 0x0 PUSH1 0x40 MLOAD DUP1 DUP4 SUB DUP2 DUP6 DUP8 GAS CALL SWAP3 POP POP POP RETURNDATASIZE DUP1 PUSH1 0x0 DUP2 EQ PUSH2 0x10B3 JUMPI PUSH1 0x40 MLOAD SWAP2 POP PUSH1 0x1F NOT PUSH1 0x3F RETURNDATASIZE ADD AND DUP3 ADD PUSH1 0x40 MSTORE RETURNDATASIZE DUP3 MSTORE RETURNDATASIZE PUSH1 0x0 PUSH1 0x20 DUP5 ADD RETURNDATACOPY PUSH2 0x10B8 JUMP JUMPDEST PUSH1 0x60 SWAP2 POP JUMPDEST POP POP SWAP1 POP DUP1 PUSH2 0x10DA JUMPI PUSH1 0x40 MLOAD PUSH4 0x12171D83 PUSH1 0xE3 SHL DUP2 MSTORE PUSH1 0x4 ADD PUSH1 0x40 MLOAD DUP1 SWAP2 SUB SWAP1 REVERT JUMPDEST PUSH1 0x40 DUP1 MLOAD PUSH3 0xFFFFFF DUP13 AND DUP2 MSTORE PUSH1 0xFF DUP8 AND PUSH1 0x20 DUP3 ADD MSTORE CALLVALUE DUP2 DUP4 ADD MSTORE PUSH1 0x1 PUSH1 0x60 DUP3 ADD MSTORE TIMESTAMP PUSH1 0x1 PUSH1 0x1 PUSH1 0x40 SHL SUB AND PUSH1 0x80 DUP3 ADD MSTORE SWAP1 MLOAD CALLER SWAP2 DUP12 SWAP2 PUSH32 0x9210EF4445AA7C4C68933E20C0DFBB40E4CF4535CEBC3DA321F9B9A3AE36951A SWAP2 DUP2 SWAP1 SUB PUSH1 0xA0 ADD SWAP1 LOG3 PUSH1 0x1 DUP9 ADD SLOAD PUSH1 0x40 DUP1 MLOAD CALLVALUE DUP2 MSTORE PUSH1 0x1 PUSH1 0x40 SHL SWAP1 SWAP3 DIV PUSH1 0x1 PUSH1 0x1 PUSH1 0x40 SHL SUB AND PUSH1 0x20 DUP4 ADD MSTORE CALLER SWAP2 DUP12 SWAP2 PUSH32 0x3E0F62F9D57AA6FFB362D3561CEE0C6A67375626C68592BA799EEB5202B5BE9C SWAP2 ADD JUMPDEST PUSH1 0x40 MLOAD DUP1 SWAP2 SUB SWAP1 LOG3 POP POP POP POP POP POP POP POP POP POP POP POP JUMP JUMPDEST PUSH2 0xBB8 DUP4 PUSH2 0xFFFF AND LT ISZERO DUP1 PUSH2 0x11B5 JUMPI POP PUSH2 0xBB8 DUP3 PUSH2 0xFFFF AND LT ISZERO JUMPDEST ISZERO PUSH2 0x11D3 JUMPI PUSH1 0x40 MLOAD PUSH4 0x179A0545 PUSH1 0xE0 SHL DUP2 MSTORE PUSH1 0x4 ADD PUSH1 0x40 MLOAD DUP1 SWAP2 SUB SWAP1 REVERT JUMPDEST PUSH3 0xFFFFFF DUP2 PUSH3 0xFFFFFF AND GT ISZERO PUSH2 0x11FC JUMPI PUSH1 0x40 MLOAD PUSH4 0x1CF7E9C5 PUSH1 0xE0 SHL DUP2 MSTORE PUSH1 0x4 ADD PUSH1 0x40 MLOAD DUP1 SWAP2 SUB SWAP1 REVERT JUMPDEST CALLER PUSH1 0x0 SWAP1 DUP2 MSTORE PUSH1 0x3 PUSH1 0x20 MSTORE PUSH1 0x40 SWAP1 KECCAK256 SLOAD TIMESTAMP SWAP1 PUSH2 0x1223 SWAP1 PUSH1 0x3C SWAP1 PUSH1 0x1 PUSH1 0x1 PUSH1 0x40 SHL SUB AND PUSH2 0x1A71 JUMP JUMPDEST GT ISZERO PUSH2 0x1242 JUMPI PUSH1 0x40 MLOAD PUSH4 0xD737A7D1 PUSH1 0xE0 SHL DUP2 MSTORE PUSH1 0x4 ADD PUSH1 0x40 MLOAD DUP1 SWAP2 SUB SWAP1 REVERT JUMPDEST PUSH1 0x0 PUSH2 0x124E DUP5 DUP5 PUSH2 0x1742 JUMP JUMPDEST PUSH1 0x0 DUP2 DUP2 MSTORE PUSH1 0x20 DUP2 SWAP1 MSTORE PUSH1 0x40 SWAP1 KECCAK256 PUSH1 0x1 DUP2 ADD SLOAD SWAP2 SWAP3 POP SWAP1 PUSH1 0x1 PUSH1 0x80 SHL SWAP1 DIV PUSH1 0xFF AND DUP1 ISZERO PUSH2 0x128F JUMPI POP PUSH1 0x1 DUP2 ADD SLOAD TIMESTAMP PUSH1 0x1 PUSH1 0x40 SHL SWAP1 SWAP2 DIV PUSH1 0x1 PUSH1 0x1 PUSH1 0x40 SHL SUB AND GT JUMPDEST ISZERO PUSH2 0x12AD JUMPI PUSH1 0x40 MLOAD PUSH4 0x246A5BB7 PUSH1 0xE1 SHL DUP2 MSTORE PUSH1 0x4 ADD PUSH1 0x40 MLOAD DUP1 SWAP2 SUB SWAP1 REVERT JUMPDEST PUSH1 0x0 PUSH2 0x12B9 DUP7 DUP7 PUSH2 0x161A JUMP JUMPDEST SWAP1 POP DUP1 CALLVALUE LT ISZERO PUSH2 0x12DC JUMPI PUSH1 0x40 MLOAD PUSH4 0xCD1C8867 PUSH1 0xE0 SHL DUP2 MSTORE PUSH1 0x4 ADD PUSH1 0x40 MLOAD DUP1 SWAP2 SUB SWAP1 REVERT JUMPDEST PUSH1 0x40 DUP1 MLOAD PUSH1 0xE0 DUP2 ADD DUP3 MSTORE DUP4 SLOAD PUSH1 0x1 PUSH1 0x1 PUSH1 0xA0 SHL SUB DUP2 AND DUP3 MSTORE PUSH1 0x1 PUSH1 0x1 PUSH1 0x40 SHL SUB PUSH1 0x1 PUSH1 0xA0 SHL DUP3 DIV DUP2 AND PUSH1 0x20 DUP5 ADD MSTORE PUSH3 0xFFFFFF PUSH1 0x1 PUSH1 0xE0 SHL DUP4 DIV AND SWAP4 DUP4 ADD SWAP4 SWAP1 SWAP4 MSTORE PUSH1 0xFF PUSH1 0x1 PUSH1 0xF8 SHL SWAP1 SWAP2 DIV DUP2 AND PUSH1 0x60 DUP4 ADD MSTORE PUSH1 0x1 DUP6 ADD SLOAD DUP1 DUP5 AND PUSH1 0x80 DUP5 ADD MSTORE PUSH1 0x1 PUSH1 0x40 SHL DUP2 DIV SWAP1 SWAP4 AND PUSH1 0xA0 DUP4 ADD MSTORE PUSH1 0x1 PUSH1 0x80 SHL SWAP1 SWAP3 DIV SWAP1 SWAP2 AND ISZERO ISZERO PUSH1 0xC0 DUP3 ADD MSTORE PUSH1 0x0 SWAP1 PUSH2 0x1368 SWAP1 PUSH2 0x1765 JUMP JUMPDEST SWAP1 POP PUSH1 0x0 PUSH1 0xA DUP3 PUSH1 0xFF AND LT PUSH2 0x137E JUMPI PUSH1 0xA PUSH2 0x1389 JUMP JUMPDEST PUSH2 0x1389 DUP3 PUSH1 0x1 PUSH2 0x1A97 JUMP JUMPDEST DUP5 SLOAD PUSH1 0x1 PUSH1 0x1 PUSH1 0xE0 SHL SUB NOT AND CALLER PUSH8 0xFFFFFFFFFFFFFFFF PUSH1 0xA0 SHL NOT DUP2 AND SWAP2 SWAP1 SWAP2 OR PUSH1 0x1 PUSH1 0xA0 SHL TIMESTAMP PUSH1 0x1 PUSH1 0x1 PUSH1 0x40 SHL SUB AND SWAP1 DUP2 MUL SWAP2 SWAP1 SWAP2 OR PUSH1 0x1 PUSH1 0x1 PUSH1 0xE0 SHL SUB AND PUSH1 0x1 PUSH1 0xE0 SHL PUSH3 0xFFFFFF DUP12 AND MUL PUSH1 0x1 PUSH1 0x1 PUSH1 0xF8 SHL SUB AND OR PUSH1 0x1 PUSH1 0xF8 SHL PUSH1 0xFF DUP6 DUP2 AND SWAP2 SWAP1 SWAP2 MUL SWAP2 SWAP1 SWAP2 OR DUP9 SSTORE PUSH1 0x1 DUP9 ADD DUP1 SLOAD PUSH17 0xFFFFFFFFFFFFFFFFFFFFFFFFFFFFFFFFFF NOT AND DUP4 OR SWAP1 SSTORE PUSH1 0x0 SWAP3 DUP4 MSTORE PUSH1 0x3 PUSH1 0x20 MSTORE PUSH1 0x40 DUP4 KECCAK256 DUP1 SLOAD PUSH8 0xFFFFFFFFFFFFFFFF NOT AND SWAP1 SWAP3 OR SWAP1 SWAP2 SSTORE SWAP2 SWAP3 POP SWAP1 DUP4 AND SWAP1 SUB PUSH2 0x1453 JUMPI PUSH1 0x1 DUP1 SLOAD SWAP1 PUSH1 0x0 PUSH2 0x144D DUP4 PUSH2 0x1A58 JUMP JUMPDEST SWAP2 SWAP1 POP SSTORE POP JUMPDEST CALLER PUSH1 0x0 SWAP1 DUP2 MSTORE PUSH1 0x2 PUSH1 0x20 MSTORE PUSH1 0x40 DUP2 KECCAK256 DUP1 SLOAD SWAP2 PUSH2 0x146E DUP4 PUSH2 0x1A58 JUMP JUMPDEST SWAP1 SWAP2 SSTORE POP PUSH1 0x0 SWAP1 POP PUSH2 0x1481 PUSH1 0x2 CALLVALUE PUSH2 0x1AB0 JUMP JUMPDEST SWAP1 POP PUSH1 0x0 PUSH2 0x148F DUP3 CALLVALUE PUSH2 0x1A84 JUMP JUMPDEST SWAP1 POP PUSH1 0x0 PUSH32 0x0 PUSH1 0x1 PUSH1 0x1 PUSH1 0xA0 SHL SUB AND DUP4 PUSH1 0x40 MLOAD PUSH1 0x0 PUSH1 0x40 MLOAD DUP1 DUP4 SUB DUP2 DUP6 DUP8 GAS CALL SWAP3 POP POP POP RETURNDATASIZE DUP1 PUSH1 0x0 DUP2 EQ PUSH2 0x14FE JUMPI PUSH1 0x40 MLOAD SWAP2 POP PUSH1 0x1F NOT PUSH1 0x3F RETURNDATASIZE ADD AND DUP3 ADD PUSH1 0x40 MSTORE RETURNDATASIZE DUP3 MSTORE RETURNDATASIZE PUSH1 0x0 PUSH1 0x20 DUP5 ADD RETURNDATACOPY PUSH2 0x1503 JUMP JUMPDEST PUSH1 0x60 SWAP2 POP JUMPDEST POP POP SWAP1 POP DUP1 PUSH2 0x1525 JUMPI PUSH1 0x40 MLOAD PUSH4 0x12171D83 PUSH1 0xE3 SHL DUP2 MSTORE PUSH1 0x4 ADD PUSH1 0x40 MLOAD DUP1 SWAP2 SUB SWAP1 REVERT JUMPDEST PUSH1 0x0 PUSH32 0x0 PUSH1 0x1 PUSH1 0x1 PUSH1 0xA0 SHL SUB AND DUP4 PUSH1 0x40 MLOAD PUSH1 0x0 PUSH1 0x40 MLOAD DUP1 DUP4 SUB DUP2 DUP6 DUP8 GAS CALL SWAP3 POP POP POP RETURNDATASIZE DUP1 PUSH1 0x0 DUP2 EQ PUSH2 0x1592 JUMPI PUSH1 0x40 MLOAD SWAP2 POP PUSH1 0x1F NOT PUSH1 0x3F RETURNDATASIZE ADD AND DUP3 ADD PUSH1 0x40 MSTORE RETURNDATASIZE DUP3 MSTORE RETURNDATASIZE PUSH1 0x0 PUSH1 0x20 DUP5 ADD RETURNDATACOPY PUSH2 0x1597 JUMP JUMPDEST PUSH1 0x60 SWAP2 POP JUMPDEST POP POP SWAP1 POP DUP1 PUSH2 0x15B9 JUMPI PUSH1 0x40 MLOAD PUSH4 0x12171D83 PUSH1 0xE3 SHL DUP2 MSTORE PUSH1 0x4 ADD PUSH1 0x40 MLOAD DUP1 SWAP2 SUB SWAP1 REVERT JUMPDEST PUSH1 0x40 DUP1 MLOAD PUSH3 0xFFFFFF DUP13 AND DUP2 MSTORE PUSH1 0xFF DUP8 AND PUSH1 0x20 DUP3 ADD MSTORE CALLVALUE SWAP2 DUP2 ADD SWAP2 SWAP1 SWAP2 MSTORE PUSH1 0x0 PUSH1 0x60 DUP3 ADD MSTORE PUSH1 0x1 PUSH1 0x1 PUSH1 0x40 SHL SUB TIMESTAMP AND PUSH1 0x80 DUP3 ADD MSTORE CALLER SWAP1 DUP11 SWAP1 PUSH32 0x9210EF4445AA7C4C68933E20C0DFBB40E4CF4535CEBC3DA321F9B9A3AE36951A SWAP1 PUSH1 0xA0 ADD PUSH2 0x1184 JUMP JUMPDEST PUSH1 0x0 PUSH2 0xBB8 DUP4 PUSH2 0xFFFF AND LT ISZERO DUP1 PUSH2 0x1637 JUMPI POP PUSH2 0xBB8 DUP3 PUSH2 0xFFFF AND LT ISZERO JUMPDEST ISZERO PUSH2 0x1655 JUMPI PUSH1 0x40 MLOAD PUSH4 0x179A0545 PUSH1 0xE0 SHL DUP2 MSTORE PUSH1 0x4 ADD PUSH1 0x40 MLOAD DUP1 SWAP2 SUB SWAP1 REVERT JUMPDEST PUSH1 0x0 PUSH2 0x1661 DUP5 DUP5 PUSH2 0x1742 JUMP JUMPDEST PUSH1 0x0 DUP2 DUP2 MSTORE PUSH1 0x20 DUP2 DUP2 MSTORE PUSH1 0x40 DUP1 DUP4 KECCAK256 DUP2 MLOAD PUSH1 0xE0 DUP2 ADD DUP4 MSTORE DUP2 SLOAD PUSH1 0x1 PUSH1 0x1 PUSH1 0xA0 SHL SUB DUP2 AND DUP3 MSTORE PUSH1 0x1 PUSH1 0x1 PUSH1 0x40 SHL SUB PUSH1 0x1 PUSH1 0xA0 SHL DUP3 DIV DUP2 AND SWAP6 DUP4 ADD SWAP6 SWAP1 SWAP6 MSTORE PUSH3 0xFFFFFF PUSH1 0x1 PUSH1 0xE0 SHL DUP3 DIV AND SWAP4 DUP3 ADD SWAP4 SWAP1 SWAP4 MSTORE PUSH1 0xFF PUSH1 0x1 PUSH1 0xF8 SHL SWAP1 SWAP4 DIV DUP4 AND PUSH1 0x60 DUP3 ADD MSTORE PUSH1 0x1 DUP3 ADD SLOAD DUP1 DUP6 AND PUSH1 0x80 DUP4 ADD MSTORE PUSH1 0x1 PUSH1 0x40 SHL DUP2 DIV SWAP1 SWAP5 AND PUSH1 0xA0 DUP3 ADD MSTORE PUSH1 0x1 PUSH1 0x80 SHL SWAP1 SWAP4 DIV SWAP1 SWAP2 AND ISZERO ISZERO PUSH1 0xC0 DUP4 ADD MSTORE SWAP3 SWAP4 POP PUSH2 0x16FC SWAP1 PUSH2 0x1765 JUMP JUMPDEST SWAP1 POP PUSH6 0x5AF3107A4000 PUSH1 0x0 JUMPDEST DUP3 PUSH1 0xFF AND DUP2 PUSH1 0xFF AND LT ISZERO PUSH2 0x1737 JUMPI PUSH1 0x64 PUSH2 0x1723 PUSH1 0x96 DUP5 PUSH2 0x1A15 JUMP JUMPDEST PUSH2 0x172D SWAP2 SWAP1 PUSH2 0x1AB0 JUMP JUMPDEST SWAP2 POP PUSH1 0x1 ADD PUSH2 0x1708 JUMP JUMPDEST POP SWAP7 SWAP6 POP POP POP POP POP POP JUMP JUMPDEST PUSH1 0x0 DUP3 PUSH2 0xFFFF AND PUSH2 0xBB8 DUP4 PUSH2 0xFFFF AND PUSH2 0x175B SWAP2 SWAP1 PUSH2 0x1A15 JUMP JUMPDEST PUSH2 0x95B SWAP2 SWAP1 PUSH2 0x1A71 JUMP JUMPDEST PUSH1 0x0 DUP2 PUSH1 0x80 ADD MLOAD PUSH1 0x1 PUSH1 0x1 PUSH1 0x40 SHL SUB AND PUSH1 0x0 SUB PUSH2 0x1784 JUMPI POP PUSH1 0x0 SWAP2 SWAP1 POP JUMP JUMPDEST PUSH1 0x0 DUP3 PUSH1 0x80 ADD MLOAD PUSH1 0x1 PUSH1 0x1 PUSH1 0x40 SHL SUB AND TIMESTAMP PUSH2 0x179F SWAP2 SWAP1 PUSH2 0x1A84 JUMP JUMPDEST SWAP1 POP PUSH1 0x0 PUSH2 0x17AF PUSH2 0xE10 DUP4 PUSH2 0x1AB0 JUMP JUMPDEST SWAP1 POP DUP4 PUSH1 0x60 ADD MLOAD PUSH1 0xFF AND DUP2 LT PUSH2 0x17C9 JUMPI POP PUSH1 0x0 SWAP4 SWAP3 POP POP POP JUMP JUMPDEST DUP1 DUP5 PUSH1 0x60 ADD MLOAD PUSH2 0xAB7 SWAP2 SWAP1 PUSH2 0x1AD2 JUMP JUMPDEST DUP1 CALLDATALOAD PUSH2 0xFFFF DUP2 AND DUP2 EQ PUSH2 0x17EB JUMPI PUSH1 0x0 DUP1 REVERT JUMPDEST SWAP2 SWAP1 POP JUMP JUMPDEST PUSH1 0x0 DUP1 PUSH1 0x0 DUP1 PUSH1 0x80 DUP6 DUP8 SUB SLT ISZERO PUSH2 0x1806 JUMPI PUSH1 0x0 DUP1 REVERT JUMPDEST PUSH2 0x180F DUP6 PUSH2 0x17D9 JUMP JUMPDEST SWAP4 POP PUSH2 0x181D PUSH1 0x20 DUP7 ADD PUSH2 0x17D9 JUMP JUMPDEST SWAP3 POP PUSH2 0x182B PUSH1 0x40 DUP7 ADD PUSH2 0x17D9 JUMP JUMPDEST SWAP2 POP PUSH2 0x1839 PUSH1 0x60 DUP7 ADD PUSH2 0x17D9 JUMP JUMPDEST SWAP1 POP SWAP3 SWAP6 SWAP2 SWAP5 POP SWAP3 POP JUMP JUMPDEST PUSH1 0x1 DUP1 PUSH1 0xA0 SHL SUB DUP2 MLOAD AND DUP3 MSTORE PUSH1 0x1 PUSH1 0x1 PUSH1 0x40 SHL SUB PUSH1 0x20 DUP3 ADD MLOAD AND PUSH1 0x20 DUP4 ADD MSTORE PUSH3 0xFFFFFF PUSH1 0x40 DUP3 ADD MLOAD AND PUSH1 0x40 DUP4 ADD MSTORE PUSH1 0xFF PUSH1 0x60 DUP3 ADD MLOAD AND PUSH1 0x60 DUP4 ADD MSTORE PUSH1 0x1 PUSH1 0x1 PUSH1 0x40 SHL SUB PUSH1 0x80 DUP3 ADD MLOAD AND PUSH1 0x80 DUP4 ADD MSTORE PUSH1 0xA0 DUP2 ADD MLOAD PUSH2 0x18AC PUSH1 0xA0 DUP5 ADD DUP3 PUSH1 0x1 PUSH1 0x1 PUSH1 0x40 SHL SUB AND SWAP1 MSTORE JUMP JUMPDEST POP PUSH1 0xC0 DUP2 ADD MLOAD PUSH2 0x18C0 PUSH1 0xC0 DUP5 ADD DUP3 ISZERO ISZERO SWAP1 MSTORE JUMP JUMPDEST POP POP POP JUMP JUMPDEST PUSH1 0x20 DUP1 DUP3 MSTORE DUP3 MLOAD DUP3 DUP3 ADD DUP2 SWAP1 MSTORE PUSH1 0x0 SWAP2 DUP5 ADD SWAP1 PUSH1 0x40 DUP5 ADD SWAP1 DUP4 JUMPDEST DUP2 DUP2 LT ISZERO PUSH2 0x1908 JUMPI PUSH2 0x18F2 DUP4 DUP6 MLOAD PUSH2 0x1844 JUMP JUMPDEST PUSH1 0x20 SWAP4 SWAP1 SWAP4 ADD SWAP3 PUSH1 0xE0 SWAP3 SWAP1 SWAP3 ADD SWAP2 PUSH1 0x1 ADD PUSH2 0x18DF JUMP JUMPDEST POP SWAP1 SWAP6 SWAP5 POP POP POP POP POP JUMP JUMPDEST PUSH1 0x0 DUP1 PUSH1 0x40 DUP4 DUP6 SUB SLT ISZERO PUSH2 0x1926 JUMPI PUSH1 0x0 DUP1 REVERT JUMPDEST PUSH2 0x192F DUP4 PUSH2 0x17D9 JUMP JUMPDEST SWAP2 POP PUSH2 0x193D PUSH1 0x20 DUP5 ADD PUSH2 0x17D9 JUMP JUMPDEST SWAP1 POP SWAP3 POP SWAP3 SWAP1 POP JUMP JUMPDEST PUSH1 0x0 PUSH1 0x20 DUP3 DUP5 SUB SLT ISZERO PUSH2 0x1958 JUMPI PUSH1 0x0 DUP1 REVERT JUMPDEST DUP2 CALLDATALOAD PUSH1 0x1 PUSH1 0x1 PUSH1 0xA0 SHL SUB DUP2 AND DUP2 EQ PUSH2 0x95B JUMPI PUSH1 0x0 DUP1 REVERT JUMPDEST PUSH1 0xE0 DUP2 ADD PUSH2 0x909 DUP3 DUP5 PUSH2 0x1844 JUMP JUMPDEST PUSH1 0x0 PUSH1 0x20 DUP3 DUP5 SUB SLT ISZERO PUSH2 0x198F JUMPI PUSH1 0x0 DUP1 REVERT JUMPDEST POP CALLDATALOAD SWAP2 SWAP1 POP JUMP JUMPDEST PUSH1 0x0 DUP1 PUSH1 0x0 PUSH1 0x60 DUP5 DUP7 SUB SLT ISZERO PUSH2 0x19AB JUMPI PUSH1 0x0 DUP1 REVERT JUMPDEST PUSH2 0x19B4 DUP5 PUSH2 0x17D9 JUMP JUMPDEST SWAP3 POP PUSH2 0x19C2 PUSH1 0x20 DUP6 ADD PUSH2 0x17D9 JUMP JUMPDEST SWAP2 POP PUSH1 0x40 DUP5 ADD CALLDATALOAD PUSH3 0xFFFFFF DUP2 AND DUP2 EQ PUSH2 0x19DA JUMPI PUSH1 0x0 DUP1 REVERT JUMPDEST DUP1 SWAP2 POP POP SWAP3 POP SWAP3 POP SWAP3 JUMP JUMPDEST PUSH4 0x4E487B71 PUSH1 0xE0 SHL PUSH1 0x0 MSTORE PUSH1 0x11 PUSH1 0x4 MSTORE PUSH1 0x24 PUSH1 0x0 REVERT JUMPDEST PUSH2 0xFFFF DUP2 DUP2 AND DUP4 DUP3 AND ADD SWAP1 DUP2 GT ISZERO PUSH2 0x909 JUMPI PUSH2 0x909 PUSH2 0x19E5 JUMP JUMPDEST DUP1 DUP3 MUL DUP2 ISZERO DUP3 DUP3 DIV DUP5 EQ OR PUSH2 0x909 JUMPI PUSH2 0x909 PUSH2 0x19E5 JUMP JUMPDEST PUSH4 0x4E487B71 PUSH1 0xE0 SHL PUSH1 0x0 MSTORE PUSH1 0x41 PUSH1 0x4 MSTORE PUSH1 0x24 PUSH1 0x0 REVERT JUMPDEST PUSH4 0x4E487B71 PUSH1 0xE0 SHL PUSH1 0x0 MSTORE PUSH1 0x32 PUSH1 0x4 MSTORE PUSH1 0x24 PUSH1 0x0 REVERT JUMPDEST PUSH1 0x0 PUSH1 0x1 DUP3 ADD PUSH2 0x1A6A JUMPI PUSH2 0x1A6A PUSH2 0x19E5 JUMP JUMPDEST POP PUSH1 0x1 ADD SWAP1 JUMP JUMPDEST DUP1 DUP3 ADD DUP1 DUP3 GT ISZERO PUSH2 0x909 JUMPI PUSH2 0x909 PUSH2 0x19E5 JUMP JUMPDEST DUP2 DUP2 SUB DUP2 DUP2 GT ISZERO PUSH2 0x909 JUMPI PUSH2 0x909 PUSH2 0x19E5 JUMP JUMPDEST PUSH1 0xFF DUP2 DUP2 AND DUP4 DUP3 AND ADD SWAP1 DUP2 GT ISZERO PUSH2 0x909 JUMPI PUSH2 0x909 PUSH2 0x19E5 JUMP JUMPDEST PUSH1 0x0 DUP3 PUSH2 0x1ACD JUMPI PUSH4 0x4E487B71 PUSH1 0xE0 SHL PUSH1 0x0 MSTORE PUSH1 0x12 PUSH1 0x4 MSTORE PUSH1 0x24 PUSH1 0x0 REVERT JUMPDEST POP DIV SWAP1 JUMP JUMPDEST PUSH1 0xFF DUP3 DUP2 AND DUP3 DUP3 AND SUB SWAP1 DUP2 GT ISZERO PUSH2 0x909 JUMPI PUSH2 0x909 PUSH2 0x19E5 JUMP INVALID LOG2 PUSH5 0x6970667358 0x22 SLT KECCAK256 PUSH8 0x741FBA2A0C5F475D PUSH32 0xD60C9D391E407CD8983164FA3737B653D62A33F1BEE264736F6C634300081C00 CALLER "
        },
        "methodIdentifiers": {
          "BASE_PIXEL_PRICE()": "5a4c91ad",
          "CANVAS_HEIGHT()": "ed4127df",
          "CANVAS_WIDTH()": "71bf439e",
          "HEAT_DECAY_TIME()": "50d4e16c",
          "HEAT_MULTIPLIER()": "a5db5bf4",
          "LOCK_DURATION()": "485d3834",
          "LOCK_PRICE_MULTIPLIER()": "f2faace0",
          "MAX_HEAT_LEVEL()": "3fbf2ccd",
          "TOTAL_PIXELS()": "a29497c2",
          "USER_COOLDOWN()": "ca838eb5",
          "decayPixelHeat(uint16,uint16)": "87da81e7",
          "fountainContract()": "382f565c",
          "getCanvasRegion(uint16,uint16,uint16,uint16)": "16cc12d7",
          "getCanvasStats()": "5d6304df",
          "getLockPrice(uint16,uint16)": "1aefa053",
          "getPixel(uint16,uint16)": "53ba9c2f",
          "getPixelPrice(uint16,uint16)": "f186bb79",
          "getUserCooldownTime(address)": "342bdb8b",
          "getUserStats(address)": "4e43603a",
          "isUserOnCooldown(address)": "aa728de1",
          "lockPixel(uint16,uint16,uint24)": "b572fa8b",
          "pixels(uint256)": "8da7f232",
          "placePixel(uint16,uint16,uint24)": "d333a81c",
          "projectWallet()": "beb08ab9",
          "totalPixelsPlaced()": "a52ac171",
          "userLastPlacement(address)": "583aa288",
          "userPixelCount(address)": "b3459e8a"
        }
      }
    }
  }
}