{
  "_format": "hh-sol-artifact-1",
  "contractName": "TheFountain",
  "sourceName": "contracts/TheFountain.sol",
  "abi": [
    {
      "inputs": [
        {
          "internalType": "address",
          "name": "_projectWallet",
          "type": "address"
        }
      ],
      "stateMutability": "nonpayable",
      "type": "constructor"
    },
    {
      "inputs": [],
      "name": "AlreadyParticipated",
      "type": "error"
    },
    {
      "inputs": [],
      "name": "InvalidEntryFee",
      "type": "error"
    },
    {
      "inputs": [],
      "name": "InvalidProjectWallet",
      "type": "error"
    },
    {
      "inputs": [],
      "name": "NoParticipants",
      "type": "error"
    },
    {
      "inputs": [],
      "name": "RoundAlreadyComplete",
      "type": "error"
    },
    {
      "inputs": [],
      "name": "RoundNotActive",
      "type": "error"
    },
    {
      "inputs": [],
      "name": "RoundNotEnded",
      "type": "error"
    },
    {
      "inputs": [],
      "name": "TransferFailed",
      "type": "error"
    },
    {
      "anonymous": false,
      "inputs": [
        {
          "indexed": true,
          "internalType": "uint256",
          "name": "roundId",
          "type": "uint256"
        },
        {
          "indexed": false,
          "internalType": "uint256",
          "name": "amount",
          "type": "uint256"
        }
      ],
      "name": "ChromaFeesReceived",
      "type": "event"
    },
    {
      "anonymous": false,
      "inputs": [
        {
          "indexed": true,
          "internalType": "uint256",
          "name": "roundId",
          "type": "uint256"
        },
        {
          "indexed": true,
          "internalType": "address",
          "name": "participant",
          "type": "address"
        },
        {
          "indexed": false,
          "internalType": "uint256",
          "name": "entryFee",
          "type": "uint256"
        },
        {
          "indexed": false,
          "internalType": "uint256",
          "name": "newPrizePool",
          "type": "uint256"
        },
        {
          "indexed": false,
          "internalType": "uint64",
          "name": "timestamp",
          "type": "uint64"
        }
      ],
      "name": "CoinTossed",
      "type": "event"
    },
    {
      "anonymous": false,
      "inputs": [
        {
          "indexed": true,
          "internalType": "uint256",
          "name": "roundId",
          "type": "uint256"
        },
        {
          "indexed": false,
          "internalType": "uint256",
          "name": "startTime",
          "type": "uint256"
        },
        {
          "indexed": false,
          "internalType": "uint256",
          "name": "endTime",
          "type": "uint256"
        }
      ],
      "name": "RoundStarted",
      "type": "event"
    },
    {
      "anonymous": false,
      "inputs": [
        {
          "indexed": true,
          "internalType": "uint256",
          "name": "roundId",
          "type": "uint256"
        },
        {
          "indexed": true,
          "internalType": "address",
          "name": "winner",
          "type": "address"
        },
        {
          "indexed": false,
          "internalType": "uint256",
          "name": "prizeAmount",
          "type": "uint256"
        },
        {
          "indexed": false,
          "internalType": "uint256",
          "name": "rolloverAmount",
          "type": "uint256"
        },
        {
          "indexed": false,
          "internalType": "uint64",
          "name": "timestamp",
          "type": "uint64"
        }
      ],
      "name": "WinnerSelected",
      "type": "event"
    },
    {
      "inputs": [],
      "name": "ENTRY_FEE",
      "outputs": [
        {
          "internalType": "uint256",
          "name": "",
          "type": "uint256"
        }
      ],
      "stateMutability": "view",
      "type": "function"
    },
    {
      "inputs": [],
      "name": "PLATFORM_FEE_PERCENT",
      "outputs": [
        {
          "internalType": "uint256",
          "name": "",
          "type": "uint256"
        }
      ],
      "stateMutability": "view",
      "type": "function"
    },
    {
      "inputs": [],
      "name": "ROLLOVER_PERCENTAGE",
      "outputs": [
        {
          "internalType": "uint256",
          "name": "",
          "type": "uint256"
        }
      ],
      "stateMutability": "view",
      "type": "function"
    },
    {
      "inputs": [],
      "name": "ROUND_DURATION",
      "outputs": [
        {
          "internalType": "uint256",
          "name": "",
          "type": "uint256"
        }
      ],
      "stateMutability": "view",
      "type": "function"
    },
    {
      "inputs": [],
      "name": "WINNER_PERCENTAGE",
      "outputs": [
        {
          "internalType": "uint256",
          "name": "",
          "type": "uint256"
        }
      ],
      "stateMutability": "view",
      "type": "function"
    },
    {
      "inputs": [],
      "name": "accumulatedRollover",
      "outputs": [
        {
          "internalType": "uint256",
          "name": "",
          "type": "uint256"
        }
      ],
      "stateMutability": "view",
      "type": "function"
    },
    {
      "inputs": [],
      "name": "currentRoundId",
      "outputs": [
        {
          "internalType": "uint256",
          "name": "",
          "type": "uint256"
        }
      ],
      "stateMutability": "view",
      "type": "function"
    },
    {
      "inputs": [],
      "name": "endRound",
      "outputs": [],
      "stateMutability": "nonpayable",
      "type": "function"
    },
    {
      "inputs": [],
      "name": "getAccumulatedRollover",
      "outputs": [
        {
          "internalType": "uint256",
          "name": "",
          "type": "uint256"
        }
      ],
      "stateMutability": "view",
      "type": "function"
    },
    {
      "inputs": [],
      "name": "getCurrentPrizeBreakdown",
      "outputs": [
        {
          "internalType": "uint256",
          "name": "totalPool",
          "type": "uint256"
        },
        {
          "internalType": "uint256",
          "name": "winnerAmount",
          "type": "uint256"
        },
        {
          "internalType": "uint256",
          "name": "rolloverAmount",
          "type": "uint256"
        },
        {
          "internalType": "uint256",
          "name": "platformFee",
          "type": "uint256"
        }
      ],
      "stateMutability": "view",
      "type": "function"
    },
    {
      "inputs": [],
      "name": "getCurrentRound",
      "outputs": [
        {
          "components": [
            {
              "internalType": "uint256",
              "name": "prizePool",
              "type": "uint256"
            },
            {
              "internalType": "uint256",
              "name": "startTime",
              "type": "uint256"
            },
            {
              "internalType": "uint256",
              "name": "endTime",
              "type": "uint256"
            },
            {
              "internalType": "address",
              "name": "winner",
              "type": "address"
            },
            {
              "internalType": "bool",
              "name": "isComplete",
              "type": "bool"
            },
            {
              "internalType": "uint256",
              "name": "totalParticipants",
              "type": "uint256"
            }
          ],
          "internalType": "struct TheFountain.Round",
          "name": "",
          "type": "tuple"
        }
      ],
      "stateMutability": "view",
      "type": "function"
    },
    {
      "inputs": [],
      "name": "getGameStats",
      "outputs": [
        {
          "internalType": "uint256",
          "name": "totalRounds",
          "type": "uint256"
        },
        {
          "internalType": "uint256",
          "name": "totalParticipants",
          "type": "uint256"
        },
        {
          "internalType": "uint256",
          "name": "totalPrizesPaid",
          "type": "uint256"
        }
      ],
      "stateMutability": "view",
      "type": "function"
    },
    {
      "inputs": [
        {
          "internalType": "uint256",
          "name": "roundId",
          "type": "uint256"
        }
      ],
      "name": "getRound",
      "outputs": [
        {
          "components": [
            {
              "internalType": "uint256",
              "name": "prizePool",
              "type": "uint256"
            },
            {
              "internalType": "uint256",
              "name": "startTime",
              "type": "uint256"
            },
            {
              "internalType": "uint256",
              "name": "endTime",
              "type": "uint256"
            },
            {
              "internalType": "address",
              "name": "winner",
              "type": "address"
            },
            {
              "internalType": "bool",
              "name": "isComplete",
              "type": "bool"
            },
            {
              "internalType": "uint256",
              "name": "totalParticipants",
              "type": "uint256"
            }
          ],
          "internalType": "struct TheFountain.Round",
          "name": "",
          "type": "tuple"
        }
      ],
      "stateMutability": "view",
      "type": "function"
    },
    {
      "inputs": [
        {
          "internalType": "uint256",
          "name": "roundId",
          "type": "uint256"
        }
      ],
      "name": "getRoundParticipants",
      "outputs": [
        {
          "internalType": "address[]",
          "name": "",
          "type": "address[]"
        }
      ],
      "stateMutability": "view",
      "type": "function"
    },
    {
      "inputs": [],
      "name": "getTimeRemaining",
      "outputs": [
        {
          "internalType": "uint256",
          "name": "",
          "type": "uint256"
        }
      ],
      "stateMutability": "view",
      "type": "function"
    },
    {
      "inputs": [],
      "name": "getTotalRounds",
      "outputs": [
        {
          "internalType": "uint256",
          "name": "",
          "type": "uint256"
        }
      ],
      "stateMutability": "view",
      "type": "function"
    },
    {
      "inputs": [
        {
          "internalType": "uint256",
          "name": "",
          "type": "uint256"
        },
        {
          "internalType": "address",
          "name": "",
          "type": "address"
        }
      ],
      "name": "hasParticipated",
      "outputs": [
        {
          "internalType": "bool",
          "name": "",
          "type": "bool"
        }
      ],
      "stateMutability": "view",
      "type": "function"
    },
    {
      "inputs": [
        {
          "internalType": "uint256",
          "name": "roundId",
          "type": "uint256"
        },
        {
          "internalType": "address",
          "name": "user",
          "type": "address"
        }
      ],
      "name": "hasUserParticipated",
      "outputs": [
        {
          "internalType": "bool",
          "name": "",
          "type": "bool"
        }
      ],
      "stateMutability": "view",
      "type": "function"
    },
    {
      "inputs": [],
      "name": "projectWallet",
      "outputs": [
        {
          "internalType": "address",
          "name": "",
          "type": "address"
        }
      ],
      "stateMutability": "view",
      "type": "function"
    },
    {
      "inputs": [
        {
          "internalType": "uint256",
          "name": "",
          "type": "uint256"
        },
        {
          "internalType": "uint256",
          "name": "",
          "type": "uint256"
        }
      ],
      "name": "roundParticipants",
      "outputs": [
        {
          "internalType": "address",
          "name": "",
          "type": "address"
        }
      ],
      "stateMutability": "view",
      "type": "function"
    },
    {
      "inputs": [
        {
          "internalType": "uint256",
          "name": "",
          "type": "uint256"
        }
      ],
      "name": "rounds",
      "outputs": [
        {
          "internalType": "uint256",
          "name": "prizePool",
          "type": "uint256"
        },
        {
          "internalType": "uint256",
          "name": "startTime",
          "type": "uint256"
        },
        {
          "internalType": "uint256",
          "name": "endTime",
          "type": "uint256"
        },
        {
          "internalType": "address",
          "name": "winner",
          "type": "address"
        },
        {
          "internalType": "bool",
          "name": "isComplete",
          "type": "bool"
        },
        {
          "internalType": "uint256",
          "name": "totalParticipants",
          "type": "uint256"
        }
      ],
      "stateMutability": "view",
      "type": "function"
    },
    {
      "inputs": [],
      "name": "tossCoin",
      "outputs": [],
      "stateMutability": "payable",
      "type": "function"
    },
    {
      "stateMutability": "payable",
      "type": "receive"
    }
  ],
  "bytecode": "0x60a060405234801561001057600080fd5b5060405161143538038061143583398101604081905261002f91610190565b6001600160a01b0381166100565760405163403273d760e11b815260040160405180910390fd5b6001600160a01b03811660805260016000818155905561007461007a565b50610208565b600080549080610089836101d6565b91905055506000805490506040518060c00160405280600154815260200142815260200162015180426100bc91906101ef565b815260006020808301829052604080840183905260609384018390528583526002808352818420865181559286015160018481019190915591860151908301559284015160038201805460808701511515600160a01b026001600160a81b03199091166001600160a01b03939093169290921791909117905560a09093015160049093019290925555807fa359b664a68acd8839e42112eb50eff3408165e15074fde89ddb58a0db2e691d4261017562015180826101ef565b6040805192835260208301919091520160405180910390a250565b6000602082840312156101a257600080fd5b81516001600160a01b03811681146101b957600080fd5b9392505050565b634e487b7160e01b600052601160045260246000fd5b6000600182016101e8576101e86101c0565b5060010190565b80820180821115610202576102026101c0565b92915050565b6080516112046102316000396000818161049c015281816109e50152610d1d01526112046000f3fe6080604052600436106101395760003560e01c80639cbe5efd116100ab578063bd3a582b1161006f578063bd3a582b14610475578063beb08ab91461048a578063dac6270d146104d6578063de26eadf146104eb578063e86ba67a1461050b578063f6d361cc1461052057600080fd5b80639cbe5efd146103d7578063a32bf597146103ed578063a34398a214610402578063b41e8cad1461044d578063b5e934941461045557600080fd5b8063560d52d4116100fd578063560d52d4146102775780636641ea081461028c57806367fd6e9e146102a3578063749aa2d9146102b85780638c65c81f146102cd5780638f1327c01461036557600080fd5b8063191e5e88146101ab5780631ad1ec22146101e55780631aff30dd1461020457806337305df5146102345780633cd28ae51461026157600080fd5b366101a65734156101a457600080548152600260205260408120805490913491839190610167908490611061565b90915550506000546040513481527f2538d63f28b596bd69fd9c4c13594ba9138df92eca5e40660e678bf53eaaea449060200160405180910390a2505b005b600080fd5b3480156101b757600080fd5b506101c061053b565b6040805194855260208501939093529183015260608201526080015b60405180910390f35b3480156101f157600080fd5b506000545b6040519081526020016101dc565b34801561021057600080fd5b506102196105bb565b604080519384526020840192909252908201526060016101dc565b34801561024057600080fd5b5061025461024f366004611074565b610688565b6040516101dc919061108d565b34801561026d57600080fd5b506101f660015481565b34801561028357600080fd5b506101f6600581565b34801561029857600080fd5b506101f66201518081565b3480156102af57600080fd5b506101f6600f81565b3480156102c457600080fd5b506101a46106f4565b3480156102d957600080fd5b5061032d6102e8366004611074565b60026020819052600091825260409091208054600182015492820154600383015460049093015491939290916001600160a01b03821691600160a01b900460ff169086565b604080519687526020870195909552938501929092526001600160a01b031660608401521515608083015260a082015260c0016101dc565b34801561037157600080fd5b50610385610380366004611074565b610770565b6040516101dc91908151815260208083015190820152604080830151908201526060808301516001600160a01b03169082015260808083015115159082015260a0918201519181019190915260c00190565b3480156103e357600080fd5b506101f660005481565b3480156103f957600080fd5b506103856107df565b34801561040e57600080fd5b5061043d61041d3660046110d9565b600360209081526000928352604080842090915290825290205460ff1681565b60405190151581526020016101dc565b6101a461084f565b34801561046157600080fd5b5061043d6104703660046110d9565b610abd565b34801561048157600080fd5b506001546101f6565b34801561049657600080fd5b506104be7f000000000000000000000000000000000000000000000000000000000000000081565b6040516001600160a01b0390911681526020016101dc565b3480156104e257600080fd5b506101f6610aea565b3480156104f757600080fd5b506104be610506366004611115565b610b73565b34801561051757600080fd5b506101f6605581565b34801561052c57600080fd5b506101f666038d7ea4c6800081565b600080548152600260205260408120600154815483928392839261055f9190611061565b94506064600582600001546105749190611137565b61057e9190611164565b9150600061058c8387611178565b9050606461059b605583611137565b6105a59190611164565b94506105b18582611178565b9350505090919293565b60008054908060015b600054811161068257600081815260026020818152604092839020835160c08101855281548152600182015492810192909252918201549281019290925260038101546001600160a01b0381166060840152600160a01b900460ff16151560808301526004015460a0820181905261063c9085611061565b93508060800151801561065b575060608101516001600160a01b031615155b1561066f57805161066c9084611061565b92505b508061067a8161118b565b9150506105c4565b50909192565b6000818152600460209081526040918290208054835181840281018401909452808452606093928301828280156106e857602002820191906000526020600020905b81546001600160a01b031681526001909101906020018083116106ca575b50505050509050919050565b600080548082526002602081905260409092209182015490919042101561072e57604051636218b96960e11b815260040160405180910390fd5b6003810154600160a01b900460ff161561075b57604051636eeab01560e11b815260040160405180910390fd5b61076482610bab565b61076c610e91565b5050565b61077861100a565b50600090815260026020818152604092839020835160c08101855281548152600182015492810192909252918201549281019290925260038101546001600160a01b0381166060840152600160a01b900460ff16151560808301526004015460a082015290565b6107e761100a565b5060008054815260026020818152604092839020835160c08101855281548152600182015492810192909252918201549281019290925260038101546001600160a01b0381166060840152600160a01b900460ff16151560808301526004015460a082015290565b66038d7ea4c68000341461087657604051636fe6a4c960e01b815260040160405180910390fd5b600080548082526002602081905260409092209182015490919042106108bb5761089f82610bab565b6108a7610e91565b505060008054808252600260205260409091205b80600101544210806108d1575080600201544210155b156108ef57604051633df07da560e01b815260040160405180910390fd5b600082815260036020908152604080832033845290915290205460ff161561092a576040516322ce1a0760e01b815260040160405180910390fd5b600082815260036020908152604080832033808552908352818420805460ff19166001908117909155868552600480855292852080549182018155855292842090920180546001600160a01b031916909217909155820180549161098d8361118b565b909155506000905060646109a2600534611137565b6109ac9190611164565b905060006109ba8234611178565b9050808360000160008282546109d09190611061565b90915550506040516000906001600160a01b037f0000000000000000000000000000000000000000000000000000000000000000169084908381818185875af1925050503d8060008114610a40576040519150601f19603f3d011682016040523d82523d6000602084013e610a45565b606091505b5050905080610a67576040516312171d8360e31b815260040160405180910390fd5b83546040805134815260208101929092524267ffffffffffffffff168282015251339187917f4bb20c807565c4f9d91764a6872a2b20b0d25400f87af66dc32f132552be99119181900360600190a35050505050565b60008281526003602090815260408083206001600160a01b038516845290915290205460ff165b92915050565b600080548152600260208181526040808420815160c081018352815481526001820154938101939093529283015490820181905260038301546001600160a01b0381166060840152600160a01b900460ff161515608083015260049092015460a0820152904210610b5d57600091505090565b428160400151610b6d9190611178565b91505090565b60046020528160005260406000208181548110610b8f57600080fd5b6000918252602090912001546001600160a01b03169150829050565b60008181526002602052604090206003810154600160a01b900460ff1615610bd1575050565b600082815260046020908152604080832080548251818502810185019093528083529192909190830182828015610c3157602002820191906000526020600020905b81546001600160a01b03168152600190910190602001808311610c13575b505050505090508051600003610c595750600301805460ff60a01b1916600160a01b17905550565b6000610c66825185610fa7565b90506000828281518110610c7c57610c7c6111a4565b60209081029190910101516003850180546001600160a81b0319166001600160a01b03831617600160a01b1790556001548554919250600091610cbf9190611061565b90506000606460058760000154610cd69190611137565b610ce09190611164565b90506000610cee8284611178565b905060006064610cff605584611137565b610d099190611164565b90506000610d178284611178565b905060007f00000000000000000000000000000000000000000000000000000000000000006001600160a01b03168560405160006040518083038185875af1925050503d8060008114610d86576040519150601f19603f3d011682016040523d82523d6000602084013e610d8b565b606091505b5050905080610dad576040516312171d8360e31b815260040160405180910390fd5b8215610e29576000876001600160a01b03168460405160006040518083038185875af1925050503d8060008114610e00576040519150601f19603f3d011682016040523d82523d6000602084013e610e05565b606091505b5050905080610e27576040516312171d8360e31b815260040160405180910390fd5b505b600182905560408051848152602081018490524267ffffffffffffffff168183015290516001600160a01b038916918d917fc2e7d9430b7b88f69262f04cadffcab20e79785888bd25114316c4f1d21e3a169181900360600190a35050505050505050505050565b600080549080610ea08361118b565b91905055506000805490506040518060c0016040528060015481526020014281526020016201518042610ed39190611061565b815260006020808301829052604080840183905260609384018390528583526002808352818420865181559286015160018481019190915591860151908301559284015160038201805460808701511515600160a01b026001600160a81b03199091166001600160a01b03939093169290921791909117905560a09093015160049093019290925555807fa359b664a68acd8839e42112eb50eff3408165e15074fde89ddb58a0db2e691d42610f8c6201518082611061565b6040805192835260208301919091520160405180910390a250565b604080514260208201524491810191909152606080820183905233901b6bffffffffffffffffffffffff1916608082015260009083906094016040516020818303038152906040528051906020012060001c61100391906111ba565b9392505050565b6040518060c0016040528060008152602001600081526020016000815260200160006001600160a01b03168152602001600015158152602001600081525090565b634e487b7160e01b600052601160045260246000fd5b80820180821115610ae457610ae461104b565b60006020828403121561108657600080fd5b5035919050565b602080825282518282018190526000918401906040840190835b818110156110ce5783516001600160a01b03168352602093840193909201916001016110a7565b509095945050505050565b600080604083850312156110ec57600080fd5b8235915060208301356001600160a01b038116811461110a57600080fd5b809150509250929050565b6000806040838503121561112857600080fd5b50508035926020909101359150565b8082028115828204841417610ae457610ae461104b565b634e487b7160e01b600052601260045260246000fd5b6000826111735761117361114e565b500490565b81810381811115610ae457610ae461104b565b60006001820161119d5761119d61104b565b5060010190565b634e487b7160e01b600052603260045260246000fd5b6000826111c9576111c961114e565b50069056fea26469706673582212204a706e63bedd952e08dec5031f87130badc91864d247745d284d54fd09b1a68564736f6c634300081c0033",
  "linkReferences": {},
  "deployedLinkReferences": {}
}